:020000040800F2
:1000000000800020055C0008395C0008395C0008AD
:1000100000000000000000000000000000000000E0
:100020000000000000000000000000009B2F0008FE
:1000300000000000000000002130000869300008C6
:10004000395C0008395C0008395C0008395C00083C
:10005000395C0008395C0008395C0008395C00082C
:10006000395C0008395C0008395C0008395C00081C
:10007000395C0008395C0008395C0008395C00080C
:10008000395C0008395C0008395C0008395C0008FC
:10009000395C0008395C0008395C0008395C0008EC
:1000A000395C0008395C0008395C0008395C0008DC
:1000B000395C0008395C0008395C000810B5064C52
:1000C0002378002B07D1054B002B02D0044800E019
:1000D00000BF0123237010BDA00A00200000000013
:1000E000A4720108084B10B5002B03D0074908483B
:1000F00000E000BF07480368002B00D110BD064B8D
:10010000002BFBD09847F9E700000000A40A00206C
:10011000A47201089C0A002000000000164B002B6E
:1001200000D1144B9D46402292029A1A9246002119
:100130008B460F461348144A121A09F083F90F4BE5
:10014000002B00D098470E4B002B00D09847002082
:10015000002104000D000D48002802D00C4805F0D5
:10016000BAFA08F0E5FF2000290005F075FA05F05D
:10017000AFFAC04600000800008000200000000028
:100180004B560008A00A0020581B0020D756000834
:100190000000000037B503680D001B6901A99847EE
:1001A000041E08D10549019812F0A0F98421C9055F
:1001B00011F01AFE286020003EBDC0466666E63F8C
:1001C000704708B4024B9C46043808BC6047C046E0
:1001D000C101000810B50123002904D000F002F984
:1001E000013843424341180010BD000008B4024BDF
:1001F0009C46043808BC6047D501000873B56B46BF
:1002000000259C1D0E002100DD8000F0F5F80300A4
:10021000012807D0208812F095FC034911F076FFE1
:100220002B003060180076BD0000204173B56B468E
:1002300000259C1D0E002100DD8000F05BF903000D
:10024000012808D00023E05E12F02CFC034911F0D5
:100250005DFF2B003060180076BDC04600002041D5
:1002600008B4024B9C46043808BC60472D020008C5
:1002700010B5040005F056FA200010BD08B4024B7A
:100280009C46043808BC604771020008044B81603A
:100290001A0028334360BE2308320260037370479C
:1002A0003456010810B500F09FF901384342584117
:1002B00010BD000070B50D1CFE2104008905281C2E
:1002C00011F0F4FB0121002806D10749281C11F088
:1002D000EDFB414241410231200000F0EDF90138CF
:1002E0004342584170BDC0460000E04010B50400D4
:1002F00000F095F9012801D1012010BD0121200055
:1003000000F0B2F90128F7D0FE2120008905FFF79F
:10031000D1FF013843425841EFE7000008B4024BD7
:100320009C46043808BC6047ED020008F0B58C46D6
:100330008668077B8BB011001C0002201F2B11D890
:100340000920634602AD220068442B7008F0E8FFE4
:100350000022631C009239002A00300007F040FCA4
:10036000431E98414042C0B20BB0F0BDF0B516003C
:100370000F221F000123057B85B084686A44117039
:1003800020000093290007F02BFC00280CD10090DE
:100390003B0032002900200007F044FC431E984136
:1003A0004042C0B205B0F0BD0120F9E710B51C0015
:1003B000012A01D98023194313002200FFF7D6FF39
:1003C000431E9841C0B210BD10B51C00012A01D9CE
:1003D0008023194313002200FFF7A8FF431E984112
:1003E000C0B210BD0B0010B501220F21FFF7DEFFD8
:1003F000431E9841C0B210BDF0B589B007AC05915D
:100400002300022230210500FFF7D0FF002803D08F
:100410000126300009B0F0BD637802220093362136
:10042000230028002778FFF7C1FF0028F0D1637868
:100430000222019323783A21029328002300FFF738
:10044000B5FF0028E4D163780222039323782821A2
:10045000049328002300FFF7A9FF061ED8D1019BB3
:1004600020781D02029B7F081D4363782DB21B027A
:10047000184300B2401B12F015FB009B041C5808E7
:10048000C01B12F00FFB011C201C12F02FF8039B65
:10049000041C1802049B184300B2401B12F002FB1C
:1004A000011C201C11F032FE041C38B212F0FAFAC2
:1004B000011C201C11F098FC0C4912F017F80C4993
:1004C000041C11F0FDFA00280DD10021201C11F0B0
:1004D000E3FA3300002803D1201C11F073FB83B230
:1004E000059A138095E7FA239B00F9E70000204165
:1004F00000007A44F0B58BB009AC079123000222CA
:1005000032210500FFF752FF002803D001273800F1
:100510000BB0F0BD08ABDE1C3300012235212800F2
:10052000FFF744FF0028F1D13378042201932378A8
:100530003C2102936378280003932300FFF736FFE2
:100540000028E3D1237866780493E37802220593A8
:10055000A3782A21069328002300FFF727FF071E10
:10056000D4D1019B36021D02C0239B001D40029B7B
:1005700020781D43049BED081E43637836B21B02AE
:10058000184300B2801B12F08DFA019B041C9801E5
:10059000C0239B001840039B1843C008401B12F067
:1005A00081FA011C201C11F0A1FF059B041C1802FC
:1005B000069B184300B2801B12F074FA011C201C29
:1005C00011F0A4FD041C280012F06CFA011C201C80
:1005D00011F00AFC034911F089FF12F043FA079B5E
:1005E000188094E70000204137B56B46DC1D0122DE
:1005F000230020210500FFF7D9FE012200280CD19D
:10060000802321785B420B432370202123002800A4
:10061000FFF7DAFE421E9041C2B210003EBD37B570
:100620006B46DC1D0122230020210500FFF7BEFEE2
:10063000012200280BD17F21237828000B40237052
:100640005F392300FFF7C0FE421E9041C2B2100086
:100650003EBD00000A0010B50100024808F050FF3E
:10066000FEE7C046B056010873B505000E0001292B
:1006700003D90F490F48FFF7EDFF6B46DC1D012240
:1006800023002021FFF792FE012200280DD1042330
:100690002178B6009943314321702300202128009E
:1006A000FFF792FE421E9041C2B2100076BDC046D6
:1006B000670200007456010873B505000E00032997
:1006C00003D90E490E48FFF7C5FF6B46DC1D01221A
:1006D00023002021FFF76AFE012200280CD103230A
:1006E0002178280099433143217023002021FFF70E
:1006F0006BFE421E9041C2B2100076BDBE020000E9
:1007000074560108704708B4024B9C46043808BC74
:100710006047C0460507000810B50123002904D032
:1007200000F068F9013843424341180010BD000051
:1007300008B4024B9C46043808BC604719070008FF
:1007400037B500240D0001A9019400F033FA03002D
:10075000012807D0019812F0A5F9034911F0D6FC41
:100760002300286018003EBD0000C84273B56B46E8
:1007700000259C1D0E002100DD8000F040FA0300E2
:10078000012808D00023E05E12F08CF9034911F033
:10079000BDFC2B003060180076BDC0460000204133
:1007A00008B4024B9C46043808BC60476D0700083B
:1007B00010B5040004F0B6FF200010BD08B4024BD1
:1007C0009C46043808BC6047B107000810B50121F9
:1007D000040000F019F9012801D1012010BD002109
:1007E000200000F02CF90128F7D00021200000F0B3
:1007F00054F90128F1D00021200000F06BF9012804
:10080000EBD00221200000F081F90128E5D0012180
:10081000200000F096F90128DFD00020014B607322
:100820002361DBE70000C84108B4024B9C46043852
:1008300008BC6047CD070008044B81601A002833CC
:100840004360BA230832026003737047E056010820
:1008500037B56B46DD1D0C00290000F00CF90128AE
:1008600015D02878202818D007D800280DD01028B7
:100870000ED00D4B0120236009E040280FD05028F6
:100880000FD03028F5D1094B04E0002323603EBD92
:10089000FE239B0523600020F9E7054BFAE7054B93
:1008A000F8E7054BF6E7C046000080BF0000C841EE
:1008B00000002041000048420000964270B50C1C28
:1008C000FE2105008905201C11F0F0F810210028F8
:1008D00015D11349201C11F0E9F8202100280ED170
:1008E0001049201C11F0E2F83021002807D10E49F0
:1008F000201C11F0DBF84021002800D11031280025
:1009000000F09DF80123984207D0290028001031FB
:10091000FFF79EFF013843424341180070BDC046B7
:10092000000020410000C8410000484210B5437B50
:1009300004000020012B08D021692000FFF7BEFF32
:10094000012802D001230020637310BDF0B58C464E
:100950008668077B8BB011001C0002201F2B11D86A
:100960000920634602AD220068442B7008F0D8FCD1
:100970000022631C009239002A00300007F030F991
:10098000431E98414042C0B20BB0F0BDF0B5160016
:100990000F221F000123057B85B084686A44117013
:1009A00020000093290007F01BF900280CD10090CB
:1009B0003B0032002900200007F034F9431E984123
:1009C0004042C0B205B0F0BD0120F9E710B51400F7
:1009D0001A002300FFF7DAFF431E9841C0B210BD92
:1009E00010B514001A002300FFF7B0FF431E984112
:1009F000C0B210BD0B0010B501220F21FFF7E6FFBA
:100A0000431E9841C0B210BD73B56B46DC1D012278
:100A10000D0023001A210600FFF7D8FF012200284D
:100A20000BD123781A2193431D43300023002570F6
:100A3000FFF7D6FF421E9041C2B2100076BD73B5DB
:100A40006B46DC1D01220D00230010210600FFF77C
:100A5000BDFF012200280CD17021237830008B4388
:100A60001D43603923002570FFF7BAFF421E9041F5
:100A7000C2B2100076BD37B56B46DD1D0C002B00F1
:100A800001221021FFF7A2FF002804D170222B7849
:100A9000134023703EBD0120FCE773B56B46DC1D9F
:100AA00001220E00230010210500FFF78FFF012215
:100AB00000280DD108232178F60099433143217095
:100AC000230010212800FFF78BFF421E9041C2B285
:100AD000100076BD73B56B46DC1D01220D002300AE
:100AE00010210600FFF772FF012200280CD104211B
:100AF000237830008B431D430C3123002570FFF712
:100B00006FFF421E9041C2B2100076BDF7B56B4632
:100B1000DC1D0E002300012210210700FFF756FF05
:100B2000051E0CD102222378102193431E43013A63
:100B3000230038002670FFF753FF2800FEBD012573
:100B4000FBE773B56B46DC1D01220E00230011216B
:100B50000500FFF73BFF012200280DD1102321786B
:100B60003601994331432170230011212800FFF7FA
:100B700037FF421E9041C2B2100076BD37B501ADBD
:100B80000C002B0003222821FFF720FF00280FD1A3
:100B90006B78AA781B02120413432A78134380222D
:100BA0001204134202D0FF221206134323603EBDFB
:100BB0000120FCE713B50C0001A9FFF7DFFF0028B7
:100BC00009D16422019B5A43D3171B051B0D9B18A7
:100BD0001B13236016BD0120FCE737B501AD0C00E7
:100BE0002B0002222B21FFF7F1FE002805D16A78A5
:100BF0002B7812029B1823803EBD0120FCE773B5C1
:100C00006B469D1D0E002900FFF7E7FF041E07D16C
:100C10000023E85E0A2110F003FE3080200076BD3C
:100C20000124FBE7704710B50123002903D000F031
:100C3000D9FB43424341180010BD10B586B00C00EB
:100C400003A900F0D3FC0123002807D0039B2360F5
:100C5000049B01936360059BA3600023180006B00A
:100C600010BD000037B56B46DD1D0C00290000F0FB
:100C700064FC03000120002B15D02878102813D025
:100C800005D800280CD00A4B012023600BE0202857
:100C90000CD083233028F6D1DB052360002002E04E
:100CA0008023DB0523603EBD8123F5E78223F3E744
:100CB000000080BFF0B585B002AC05000F00062231
:100CC0000021200008F0BEFB6B46DE1D310028002D
:100CD00000F00DFC002802D1012005B0F0BD6B46EC
:100CE0002800991D00F0CFFB0028F5D06B469B79BA
:100CF000082B04D13278002AEED11E0007E0002B29
:100D0000EAD13378002B1CD00426082BE4D1210033
:100D1000280000F050FC0028DED0637822781B0207
:100D20009B1833413B80E378A2781B029B18334128
:100D30007B80637922791B029B1833410020BB80A2
:100D4000CBE70626E3E7000037B56B46DD1D0C0058
:100D5000290000F0BEFB03000120002B0BD02878F7
:100D600030281FD008D8102815D0202818D00028E7
:100D700007D1002323603EBD502817D005D8402856
:100D800012D00C4B01202360F5E7602810D07028AA
:100D9000F7D1094B01E0FE239B0523600020EAE721
:100DA000064BFAE7064BF8E7064BF6E7064BF4E787
:100DB000064BF2E7000080BF0000C843000020415E
:100DC0000000C841000048420000C84200004843FB
:100DD00070B50C1C80210500C905201C10F066FEB2
:100DE0000021884210D18121201CC90510F05EFE2F
:100DF0001021002808D18221201CC90510F056FEC0
:100E00002021002800D11031280000F07EFB434251
:100E1000584170BD10B5040004F084FC200010BDE2
:100E200010B58021040000F096FB002801D10120BC
:100E300010BD0021200000F0A6FB0028F7D0002103
:100E4000200000F02EFB0028F1D080212368C90586
:100E50009B6A200098470128E9D00121200000F07A
:100E6000CAFA0028E3D00221200000F0DCFA0028B2
:100E7000DDD00421200000F0EEFA0028D7D00020B9
:100E8000014B6072E360D3E70000C842034B41604E
:100E900008330360322303727047C04620570108AD
:100EA00037B56B46DD1D0C00290000F046FB030042
:100EB0000120002B11D0287810280FD005D8002849
:100EC00009D0094B0120236007E020280AD03028F0
:100ED000F7D1064B03E0064B23603EBD054B236074
:100EE0000020FAE7044BFAE7000080BF9A993B42E2
:100EF0009A997940713DFA407B147A4137B56B4637
:100F0000DD1D0C00290000F018FB03000120002B60
:100F100011D0287810280FD005D8002809D0094B07
:100F20000120236007E020280AD03028F7D1064BA3
:100F300003E0064B23603EBD054B23600020FAE72B
:100F4000044BFAE7000080BF7B943B437B147A415B
:100F50007B14FA417B147A4237B56B46DD1D0C00D9
:100F6000290000F0EAFA03000120002B11D02878B4
:100F700010280FD005D8002809D0094B0120236084
:100F800007E020280AD03028F7D1064B03E0064BB3
:100F900023603EBD054B23600020FAE7044BFAE7CF
:100FA000000080BF1F853B4148E17A3F9A99F93F95
:100FB0009A997940F7B56B469F1D0D0039000400E2
:100FC00000F061FA002801D10120FEBD6B46DE1D54
:100FD0003100200000F08BFA0028F5D03B78002B80
:100FE00007D13378002B0ED129002000FFF758FFDE
:100FF000EBE7082BE8D13378002BE5D1290020005E
:10100000FFF77CFFE1E7082BDED129002000FFF786
:10101000A3FFDAE770B50C1CFE2105008905201C32
:1010200010F044FD1021002823D11549201C10F098
:101030003DFD202100281CD11249201C10F036FD56
:101040003021002815D11049201C10F02FFD40211F
:1010500000280ED10D49201C10F028FD5021002839
:1010600007D10B49201C10F021FD6021002800D180
:101070001031280000F015FA4342584170BDC046B7
:10108000000020410000C841000048420000C84262
:101090000000484310B5437A04000020012B08D01B
:1010A000E1682000FFF7B6FF012802D001230020ED
:1010B000637210BD70B50C1CFE2105008905201C53
:1010C00010F0F4FC002821D11749201C10F0EEFC90
:1010D00000281ED11549201C10F0E8FC00281AD168
:1010E0001349201C10F0E2FC002816D11149201CE5
:1010F00010F0DCFC002812D10F49201C10F0D6FCA7
:1011000000280ED10D4BEB60002070BDFE239B0527
:10111000F9E7054BF7E7054BF5E7054BF3E7054B1B
:10112000F1E7054BEFE7C046000020410000C84151
:10113000000048420000C842000048430000C84385
:1011400010B5437A012B05D1FFF764FF0138434204
:10115000584110BDFFF7AEFFF8E7F0B58C46466882
:10116000077A8BB011001C0002201F2B11D8092018
:10117000634602AD220068442B7008F0D1F80022CB
:10118000631C009239002A00300006F029FD431E3E
:1011900098414042C0B20BB0F0BDF0B516000F222E
:1011A0001F000123057A85B044686A44117020004D
:1011B0000093290006F014FD00280CD100903B009C
:1011C00032002900200006F02DFD431E98414042C8
:1011D000C0B205B0F0BD0120F9E713B503680C00FB
:1011E0005B6969469847012824D06B460020185E49
:1011F00011F058FCFF21890511F078F911F032FC4B
:101200006B4620600220185E11F04CFCFF2189051E
:1012100011F06CF911F026FC6B4660600420185E3A
:1012200011F040FCFF21890511F060F911F01AFC62
:10123000A060002016BD704710B50123002903D01F
:1012400000F074FA43424341180010BD37B5050061
:1012500006220C006846002108F0F4F869462800D0
:1012600000F0CDFA0123002809D06B461B882380AB
:101270006B465B8863806B469B88A38000231800C5
:101280003EBD10B5040004F04DFA200010BD000072
:10129000034B4160083303603C2303727047C04630
:1012A0005457010810B5002100F049FA4342584153
:1012B00010BD000070B50C1C05000E49201C10F07C
:1012C000F5FB002188420ED10B49201C10F0EEFBEB
:1012D0000421002807D10949201C10F0E7FB082150
:1012E000002800D10431280000F041FA434258415F
:1012F00070BDC046000020410000A04100004842EF
:1013000010B50221040000F01AFA002801D10120D2
:1013100010BD1021200000F05AFA0028F7D006492D
:101320002000FFF7C7FF0128F1D00021200000F0C6
:1013300036FA43425841EBE70000C842F0B58C460C
:101340004668077A8BB011001C0002201F2B11D8B1
:101350000920634602AD220068442B7007F0E0FFCD
:101360000022631C009239002A00300006F038FC8D
:10137000431E98414042C0B20BB0F0BDF0B516001C
:101380000F221F000123057A85B044686A4411705A
:1013900020000093290006F023FC00280CD10090C7
:1013A0003B0032002900200006F03CFC431E98411F
:1013B0004042C0B205B0F0BD0120F9E710B50123ED
:1013C000FFF7EBFE43425841C0B210BD07B5130012
:1013D0006A46073213700123FFF7BFFE43425841AC
:1013E000C0B20EBD10B50A000F21FFF7E7FF431E84
:1013F0009841C0B210BD73B56B46DC1D0E002200D3
:1014000020210500FFF7DAFF00280BD00123227806
:1014100020219A43324328002270FFF7D7FF431E52
:101420009841C0B276BD73B56B46DC1D0E0022003C
:1014300020210500FFF7C2FF00280BD002232278ED
:1014400020219A43324328002270FFF7BFFF431E3A
:101450009841C0B276BD73B56B46DC1D0E0022000C
:1014600020210500FFF7AAFF00280BD004232278D3
:1014700020219A43324328002270FFF7A7FF431E22
:101480009841C0B276BD10B50A000C002021FFF7CC
:1014900095FF002804D008220120237813402370F0
:1014A00010BD73B56B46DC1D0E0022002021050027
:1014B000FFF784FF00280BD00F23227820211A4049
:1014C000324328002270FFF781FF431E9841C0B2CB
:1014D00076BD10B50A000C002021FFF76FFF002831
:1014E00004D00F22012023789343237010BD10B540
:1014F0000A000C002321FFF761FF002804D0082216
:10150000012023781340237010BD73B56B46DC1D9A
:101510000E00220023210500FFF750FF00280BD00A
:101520003023227823219A43324328002270FFF788
:101530004DFF431E9841C0B276BD10B50A000C00A5
:101540002321FFF73BFF002804D03022012023781D
:101550001340237010BD73B56B46DC1D0E002200D6
:1015600023210500FFF72AFF00280BD07F232278D4
:1015700023211A40324328002270FFF727FF431E21
:101580009841C0B276BD73B56B46DC1D0E002200DB
:101590002E210500FFF712FF00280BD03F232278F1
:1015A0002E211A40324328002270FFF70FFF431EFE
:1015B0009841C0B276BD70B506000D0028242A00FF
:1015C00021003000FFF7FAFE002807D0611C6A1CDA
:1015D000C9B23000FFF7F2FE002800D170BD02341E
:1015E000E4B202352E2CEAD10120F7E7F0B587B03E
:1015F00002AB9F1D019139000500FFF778FF00281D
:1016000002D1002007B0F0BD02AB5C1D2100280014
:10161000FFF739FF0028F4D02478082C05D13B7857
:10162000002BEED10094022408E0002CE9D13B7895
:10163000002B60D0082BE4D1043B009302ABDF1DEC
:1016400039002800FFF779FF0028DAD03B7802271D
:10165000202B05D00137302B02D0103B5F425F4179
:1016600004A92800FFF7A7FF0028CAD002AB082072
:10167000185E009BA4001841E719214CFF00E719F0
:101680003C687D68C11722002B00FA2610F070FA22
:101690000027FA227600920000238019794110F089
:1016A00023FA019B2200186002AB0A20185E009BFF
:1016B00018412B00C11710F05BFAFA2200239200A8
:1016C0008019794110F010FA019B2200586002AB9A
:1016D0000C20185E009B18412B00C11710F048FA2F
:1016E000FA22002380197941920010F0FDF9019B44
:1016F0009860012086E70623012400939EE7C046F8
:101700007857010810B50123FFF738FE43425841CE
:10171000C0B210BD07B513006A460732137001232B
:10172000FFF70CFE43425841C0B20EBD10B50A008F
:101730004F21FFF7E7FF431E9841C0B210BD73B5BC
:101740006B46DC1D0E00220060210500FFF7DAFF6A
:1017500000280BD00323227860219A4332432800CB
:101760002270FFF7D7FF431E9841C0B276BD73B514
:101770006B46DC1D0E00220060210500FFF7C2FF52
:1017800000280BD00C23227860219A433243280092
:101790002270FFF7BFFF431E9841C0B276BD73B5FC
:1017A0006B46DC1D0E00220062210500FFF7AAFF38
:1017B00000280BD00223227862219A43324328006A
:1017C0002270FFF7A7FF431E9841C0B276BD73B5E4
:1017D0006B46DC1D0E00220062210500FFF792FF20
:1017E00000280BD01023227862219A43324328002C
:1017F0002270FFF78FFF431E9841C0B276BD70B5CF
:1018000006000D0068242A0021003000FFF77AFF4F
:10181000002807D0611C6A1CC9B23000FFF772FFB4
:10182000002800D170BD0234E4B202356E2CEAD13A
:101830000120F7E77FB500230193036802AC0E0097
:101840005B69210005009847012802D1012004B0FE
:1018500070BD2B6801A99B69280098470128F5D025
:10186000019D0023E05E11F01DF9291C10F03EFEE1
:1018700011F0F8F830600223E05E11F013F9291C32
:1018800010F034FE11F0EEF870600423E05E11F009
:1018900009F9291C10F02AFE11F0E4F8B0600020CC
:1018A000D5E77FB500230193036802AC0E005B6BA4
:1018B000210005009847012802D1012004B070BD25
:1018C0002B6801A91B6B280098470128F5D0019DC2
:1018D0000023E05E11F0E6F8291C10F007FE11F07D
:1018E000C1F830600223E05E11F0DCF8291C10F032
:1018F000FDFD11F0B7F870600423E05E11F0D2F83E
:10190000291C10F0F3FD11F0ADF8B0600020D5E710
:1019100008B4024B9C46043808BC6047A318000872
:1019200010B50123002903D000F010FD43424341CC
:10193000180010BD08B4024B9C46043808BC604730
:101940002119000837B56B46DD1D0C00290000F099
:101950003DFD012300280ED028780C2813D80FF065
:10196000CBFE07121212101212120C1212120E00DB
:10197000074B2360002318003EBD064BF9E7064BDA
:10198000F7E7064BF5E7064B23600123F3E7C04674
:1019900023DB793D23DBF93D23DB793E23DBF93E75
:1019A000000080BF37B56B46DD1D0C00290000F03C
:1019B0000DFD012300280FD028780C2814D80FF033
:1019C0009BFE07131313111313130D1313130F009F
:1019D0008023DB052360002318003EBD8123F8E748
:1019E0008223F6E78323F4E7014B23600123F3E727
:1019F000000080BFF7B56B46DE1D0C00310007000C
:101A000000F0C6FD002801D101200DE06B469D1DB0
:101A10002900380000F04BFD0028F5D03378022B68
:101A200003D10D4B00202360FEBD28780C2810D870
:101A30000FF062FE070F0F0F090F0F0F0B0F0F0FA5
:101A40000D00064BEEE7064BECE7064BEAE7064BCC
:101A5000E8E7064B2360D7E70000FA420000754331
:101A60000000FA4300007A440000FA44000080BFFE
:101A700008B4024B9C46043808BC6047F5190008BE
:101A800037B5050006220C006846002107F0DAFC95
:101A90006946280000F0A9FC0123002812D06B46FB
:101AA0005A781B7812029B1823806B46DA789B7851
:101AB00012029B1863806B465A791B7912029B189D
:101AC000A380002318003EBD37B5050006220C0098
:101AD0006846002107F0B6FC6946280000F0F6FCD5
:101AE0000123002812D06B465A781B7812029B18EB
:101AF00023806B46DA789B7812029B1863806B46D2
:101B00005A791B7912029B18A380002318003EBD4E
:101B100008B4024B9C46043808BC6047C91A000848
:101B200037B56B46DD1D0C00290000F096FC030064
:101B30000120002B25D0287850282BD010D8202821
:101B400024D007D800281AD010281BD0154B01200C
:101B5000236016E030281BD04028F7D1124B12E04A
:101B600080281BD005D8602816D07028EED10F4BE6
:101B700009E0902814D0A028E8D10D4B03E0002301
:101B800023603EBD0B4B23600020FAE70A4BFAE7C7
:101B90000A4BF8E70A4BF6E70A4BF4E70A4BF2E781
:101BA0000A4BF0E7000080BF0000D04200405044E4
:101BB0000020D045000050410000D04100005042BC
:101BC000000050430000D0430080CF440020504527
:101BD00037B56B46DD1D0C00290000F0AFFC03009B
:101BE0000120002B25D0287850282BD010D8202871
:101BF00024D007D800281AD010281BD0154B01205C
:101C0000236016E030281BD04028F7D1124B12E099
:101C100080281BD005D8602816D07028EED10F4B35
:101C200009E0902814D0A028E8D10D4B03E0002350
:101C300023603EBD0B4B23600020FAE70A4BFAE716
:101C40000A4BF8E70A4BF6E70A4BF4E70A4BF2E7D0
:101C50000A4BF0E7000080BF0000D0420040504433
:101C60000020D045000050410000D041000050420B
:101C7000000050430000D0430080CF440020504576
:101C800008B4024B9C46043808BC6047D11B0008CE
:101C900070B50C1C80210500C905201C0FF006FF43
:101CA0000021884210D18121201CC9050FF0FEFEC1
:101CB0000821002808D18221201CC9050FF0F6FE5A
:101CC0000C21002800D10839280000F064FB4342B1
:101CD000584170BD10B50421040000F083FC0028B9
:101CE00001D1012010BD4021200000F039FB002867
:101CF000F7D00021200000F05AFC0028F1D000218C
:101D0000200000F08FFB0028EBD080212368C9055C
:101D10009B6A200098470128E3D00021200000F0B2
:101D2000F2FB0028DDD0236808495B6C200098474F
:101D30000128D6D022000020054BA0321360033AC0
:101D40001070A4340B3213602070CBE70000FA440B
:101D50000000D04208B4024B9C46043808BC6047DF
:101D6000D51C0008F7B56B469E1D0D00310007001D
:101D700000F00EFC0124002805D03378022B04D19A
:101D8000124B00242B602000FEBD6B46DE1D31008F
:101D9000380000F08CFB0028F5D030780C2810D8E3
:101DA0000FF0AAFC070F0F0F090F0F0F0B0F0F0FEC
:101DB0000D00074BE5E7074BE3E7074BE1E7074B70
:101DC000DFE7074B01242B60DDE7C04600008C40B5
:101DD00000000C4100008C4100000C4200008C42CD
:101DE000000080BF08B4024B9C46043808BC604722
:101DF000651D000870B50D1C06001749281C0FF062
:101E000055FE041E07D00221300000F0A6FB43421D
:101E10004341180070BD1149281C0FF047FE0028EF
:101E20000ED10F49281C0FF041FE0424002807D1D1
:101E30000C49281C0FF03AFE2419002800D1043464
:101E40000021300000F089FB01230028E1D02100AF
:101E5000300000F011FBDAE70000FA4200007543A1
:101E60000000FA4300007A4408B4024B9C46043850
:101E700008BC6047F51D000870B51D000B4B040041
:101E8000180008302060200058336360A1600C30D7
:101E9000110005F035FF20002900543005F030FF17
:101EA0002300D6229C3320001A7070BDD857010839
:101EB00070B50C1C05002349201C0FF0F7FD102104
:101EC000002838D12049201C0FF0F0FD20210028E7
:101ED00031D11E49201C0FF0E9FD302100282AD104
:101EE0001B49201C0FF0E2FD4021002823D1194995
:101EF000201C0FF0DBFD502100281CD11649201CAE
:101F00000FF0D4FD6021002815D11449201C0FF0DA
:101F1000CDFD702100280ED11149201C0FF0C6FD07
:101F20008021002807D10F49201C0FF0BFFD902110
:101F3000002800D11031280000F074FA43425841C3
:101F400070BDC046000050410000D041000050422A
:101F50000000D042000050430000D04300405044F5
:101F60000080CF440020504510B504009D342278F5
:101F70000023012A0AD00300A0331968FFF798FF55
:101F80000300012802D0012323700023180010BD94
:101F900070B50C1C05002649201C0FF087FD002899
:101FA00034D12449201C0FF081FD002830D1224972
:101FB000201C0FF07BFD00282CD12049201C0FF0A5
:101FC00075FD002828D11E49201C0FF06FFD002848
:101FD00024D11C49201C0FF069FD002820D11A498A
:101FE000201C0FF063FD00281CD11849201C0FF0A5
:101FF0005DFD002818D11649201C0FF057FD002860
:1020000014D1144BA0352B60002070BD084BF9E7AC
:10201000084BF7E7084BF5E7084BF3E7084BF1E708
:10202000084BEFE7084BEDE7084BEBE7084BE9E718
:10203000000050410000D041000050420000D0425A
:10204000000050430000D043004050440080CF4483
:10205000002050450020D045030010B59D331B786B
:10206000012B05D1FFF724FF01384342584110BD31
:10207000FFF78EFFF8E7000070B50C1C0500234940
:10208000201C0FF013FD1021002838D12049201CFE
:102090000FF00CFD2021002831D11E49201C0FF02B
:1020A00005FD302100282AD11B49201C0FF0FEFC21
:1020B0004021002823D11949201C0FF0F7FC5021A2
:1020C00000281CD11649201C0FF0F0FC60210028CC
:1020D00015D11449201C0FF0E9FC702100280ED105
:1020E0001149201C0FF0E2FC8021002807D10F4984
:1020F000201C0FF0DBFC9021002800D110312800BB
:1021000000F001FA4342584170BDC0460000504102
:102110000000D041000050420000D0420000504377
:102120000000D043004050440080CF440020504580
:1021300010B50400A43422780023012A0AD0030039
:10214000A8331968FFF798FF0300012802D0012384
:1021500023700023180010BD70B50C1C0500264923
:10216000201C0FF0A3FC002834D12449201C0FF0C0
:102170009DFC002830D12249201C0FF097FC00283C
:102180002CD12049201C0FF091FC002828D11E4999
:10219000201C0FF08BFC002824D11C49201C0FF0C0
:1021A00085FC002820D11A49201C0FF07FFC002854
:1021B0001CD11849201C0FF079FC002818D11649B1
:1021C000201C0FF073FC002814D1144BA8352B6091
:1021D000002070BD084BF9E7084BF7E7084BF5E71F
:1021E000084BF3E7084BF1E7084BEFE7084BEDE747
:1021F000084BEBE7084BE9E7000050410000D041F5
:10220000000050420000D042000050430000D04384
:10221000004050440080CF44002050450020D0456D
:10222000030010B5A4331B78012B05D1FFF724FF61
:1022300001384342584110BDFFF78EFFF8E7000018
:1022400008B4024B9C46043808BC604721220008B1
:10225000F0B586689C308C4607788BB011001C0066
:1022600002201F2B11D80920634602AD22006844CA
:102270002B7007F055F80022631C009239002A00E9
:10228000300005F0ADFC431E98414042C0B20BB097
:10229000F0BDF0B515000F221E00012384689C30AC
:1022A000077885B06A44117020000093390005F06A
:1022B00097FC00280CD1009033002A003900200040
:1022C00005F0B0FC431E98414042C0B205B0F0BDDD
:1022D0000120F9E7084B10B51A0004000832583302
:1022E00002604360543005F0DBFC20000C3005F048
:1022F000D7FC200010BDC046D857010808B4024BD7
:102300009C46043808BC6047D522000810B504007C
:10231000FFF7E0FF200003F005FA200010BD08B42D
:10232000024B9C46043808BC6047C0460D23000899
:1023300010B5FFF7AEFF43425841C0B210BD10B513
:10234000FFF786FF43425841C0B210BD10B50A00E6
:1023500001230F21FFF7ECFF431E9841C0B210BDCF
:1023600073B56B46DC1D0D0001232200122106000F
:10237000FFF7DEFF00280DD040222378122193437F
:102380001D432200012330002570FFF7D8FF431EB4
:102390009841C0B276BD73B56B46DC1D0D000123BC
:1023A000220010210600FFF7C3FF00280DD00C22E9
:1023B0002378102193431D43220001233000257010
:1023C000FFF7BDFF431E9841C0B276BD10B50A00AD
:1023D0000C0001231021FFF7ABFF002804D00C22D2
:1023E000012023781340237010BDF7B506000F00BD
:1023F00003250024A31CDBB20193210028313A19E4
:10240000C9B201233000FFF793FF002809D001343F
:10241000019BE4B2A342F0D1013DEDB2002DE9D120
:102420000120FEBD73B56B46DC1D0D0001232200AB
:1024300010210600FFF77CFF00280DD00F22237823
:10244000102113401D432200012330002570FFF7A7
:1024500076FF431E9841C0B276BD10B50A000C004D
:1024600001231021FFF764FF002804D00F22012070
:1024700023789343237010BD73B56B46DC1D0D00AC
:102480000123220011210600FFF752FF00280DD082
:102490000C222378112193431D4322000123300095
:1024A0002570FFF74CFF431E9841C0B276BD10B5B2
:1024B0000A000C0001231121FFF73AFF002804D085
:1024C0000C22012023781340237010BDF7B50600BD
:1024D0000F0003250024A31CDBB20193210022314D
:1024E0003A19C9B201233000FFF722FF002809D0B2
:1024F0000134019BE4B2A342F0D1013DEDB2002DC5
:10250000E9D10120FEBD73B56B46DC1D0D00012332
:10251000220011210600FFF70BFF00280DD00F222B
:102520002378112113401D43220001233000257020
:10253000FFF705FF431E9841C0B276BD10B50A00F3
:102540000C0001231121FFF7F3FE002804D00F2215
:10255000012023789343237010BD73B56B46DC1DB7
:102560000D000123220011210600FFF7E1FE0028E3
:102570000DD002222378112193431D432200012311
:1025800030002570FFF7DBFE431E9841C0B276BDD8
:1025900010B50A000C0001231121FFF7C9FE002825
:1025A00004D00222012023781340237010BD73B59C
:1025B0006B46DC1D0D00012322000A210600FFF7F7
:1025C000B7FE00280DD0072223780A2193431D432C
:1025D0002200012330002570FFF7B1FE431E984111
:1025E000C0B276BD73B56B46DC1D0D000123220021
:1025F00012210600FFF79CFE00280DD0042223784C
:10260000122193431D432200012330002570FFF760
:1026100096FE431E9841C0B276BD000010B504007E
:10262000044B08C02369002B01D09B689847200009
:1026300010BDC046E861010810B50400024B0360FC
:10264000FFF7ECFF200010BD6458010810B504002E
:10265000FFF7F2FF200003F065F8200010BD10B571
:102660000400FFF7DBFF200003F05CF8200010BD42
:10267000F8B504000160102016001F0003F03AF8BE
:1026800005002168FDF702FE65600C2003F032F8BA
:1026900005002168FEF7FCFDA560102003F02AF874
:1026A00005002168FEF7F2FBE560142003F022F834
:1026B00005002168FEF7C0F82561AC2003F01AF888
:1026C000050032003B002168FFF7D6FB60686561BA
:1026D000036800211B689847A068002103681B68F5
:1026E0009847E068002103681B689847206900212B
:1026F00003681B6898476069002103681B68984756
:102700002000F8BDF7B5104D01932B6800900F0025
:102710001600002B15D1D82002F0ECFF04003A007F
:10272000009905F003FA094B2360002C09D018200A
:1027300002F0E0FF0700019B32002100FFF798FF45
:102740002F602868FEBDC046BC0A002064580108FE
:1027500010B50400024B036005F0C0FC200010BD62
:102760007C58010810B541694B1C0231436189074F
:1027700005F0A6FC10BD10B50400FFF7E9FF20002E
:1027800002F0D0FF200010BD70B50026094B5A6939
:1027900018699508940705F030FD33008000820821
:1027A00012196B411000FA221900920000230FF059
:1027B000BFF970BDC00A002010B5094C200005F01B
:1027C00069FC084B8021236000232000C905636158
:1027D00005F076FC044A0549200002F077FF10BDA1
:1027E000C00A00207C580108C000002051270008C2
:1027F000002801D00CC90CC07047704710B50368A1
:102800004068984710BD000010B5034800F0C6F9B5
:10281000642000F020FAF8E7EC0A0020C36810B545
:102820000400002B01D09B689847200010BDC368AE
:1028300010B50400002B01D09B689847200010BD04
:1028400070B506000C4B983604000360002E08D0CB
:102850000500B835B54204D0103D2800FFF7E7FF6A
:10286000F8E720003830FFF7D9FF20002830FFF7C5
:10287000D5FF200070BDC0469063010810B504006C
:10288000FFF7DEFF200002F04DFF200010BD00002A
:1028900010B50400074B084A0360084BBC300360C6
:1028A0002300C0331A6005F025FB2000FFF7C8FFA6
:1028B000200010BDD06201082C630108F0620108FD
:1028C00008B4024B9C46BC3808BC604791280008FD
:1028D00008B4024B9C46C03808BC604791280008E9
:1028E000962310B50400B8B09B0103220093022187
:1028F000002302A805F082FA210002A805F03AFBA5
:1029000002A8FFF7C5FF38B010BD0000F0B50024E5
:10291000A5B04A4B21001AA80E93129400F027F993
:102920001EA800F0FBF880222100120123000EA84F
:1029300000F06CF9424D2868FDF7B4FC414F38684F
:10294000FDF7F4FF404B1868FEF7ACFC3F4B1868EE
:10295000FEF7A0FB3E4E3068FFF706FB3068FFF73E
:10296000E7FBE1204002FFF7BBFF3A4B0AA90A93BD
:10297000394B0EA80B93394B0D9300F0A9F90AA817
:10298000FFF755FF364806F0BBFD2868132502AB5C
:10299000ED18036829005B6898472978314806F0EC
:1029A000AFFD38682900036801275B6898472978DC
:1029B0002D4806F0A5FD244B290018687F420368C6
:1029C0005B6898472978294806F09AFD1F4B290033
:1029D000186803685B6898472978254806F090FDD9
:1029E0003068290003685B6898472978214806F019
:1029F00087FD214806F084FD3900204800F0C9F821
:102A0000306807A903681B69984730680AA90368FA
:102A1000DB6A9847FFF7B8FE05000C9B011B039388
:102A20000B9B079A02930A9B15480193099B2C0064
:102A300005930093089B06F063FDDDE7805A0108CB
:102A4000E80A0020D80A0020DC0A0020E00A002062
:102A5000E40A002009280008945801088858010851
:102A6000A1580108BE580108E95801081459010885
:102A70003F5901086A59010895590108EC0A0020DC
:102A8000C359010810B50400FFF702FF200002F04F
:102A900049FE200010BD08B4024B9C46BC3808BC5F
:102AA0006047C046852A000808B4024B9C46C038DF
:102AB00008BC6047852A000810B514231522182188
:102AC0001920FFF71FFE0D4B82680D4C1A604268FB
:102AD0000C4B01211A6002690B4B1A6042690B4BC7
:102AE0001A60C2680A4B20001A6000F040F8094AD8
:102AF0000949200002F0EAFD10BDC046DC0A0020B2
:102B0000EC0A0020E80A0020D80A0020E40A00208D
:102B1000E00A0020C0000020A72B000870B50500C7
:102B20000400083510220021280006F08BFC6560A7
:102B3000201D00F075FC2060002802D1024805F03D
:102B400021FC200070BDC046E259010810B50068A4
:102B500000F088FC10BD10B5006800F0ADFC10BDA1
:102B600010B50400006800F015FD200010BD70B520
:102B7000050004000E00083508222800002106F098
:102B800061FC65603100201D00F086FD20602000A2
:102B900070BD10B5006800F0A1FD10BD10B5006853
:102BA00000F0AEFD10BD10B50400006800F0BAFDE5
:102BB000200010BD036970B50400051D002B05D170
:102BC000E8220B49FF320B4805F074FB236928000B
:102BD0001B6898472000012140304942FFF7B6FFAB
:102BE0000023200063613030FFF7D8FF70BDC0467E
:102BF000535A0108715A0108034B10B51B68002B8A
:102C000000D0984710BDC046FC0A002030B5002413
:102C100044615D425D4104002C3425708183426231
:102C2000836230BD70B50500012104004035494282
:102C30002800FFF78BFF200030306669FFF7AEFFFA
:102C400000233000636100F083FC04002800FFF7DC
:102C500082FF200070BD10B500F068FB10BD0000C1
:102C600010B504000E4B08330360FFF7DBFF2300B1
:102C70002C331B78002B06D0A06A002801D002F06C
:102C800057FD0023A36220004030FFF769FF2000BA
:102C90003030FFF788FF201DFFF7C9FD200010BD71
:102CA000785A010810B50400FFF7DAFF200002F09F
:102CB00039FD200010BDCB6870B504000D00002B5D
:102CC00001D05B689847EB682000E36070BD0000AE
:102CD000F8B505000E0001210400403549422800E6
:102CE000FFF734FF6369002B04D02800FFF733FFA0
:102CF0008020F8BD284BA361A36A002B0FD1606A26
:102D0000264B984216D80323984302F0FFFCA0629A
:102D1000002804D156222249224805F0CBFA00238C
:102D20002149626A9208934207D2A06A9A00115020
:102D30000133F6E701204042E7E7271DB74208D0FC
:102D40003800FFF774FD002F03D031003800FFF783
:102D5000B2FF20002100183000F0F4FB6061002871
:102D600014D123002C331B78002B06D0A06A002836
:102D700001D002F0DDFC0023A3622800FFF7EBFE88
:102D800020003030FFF70AFF8120B2E72800FFF76C
:102D9000E2FE0020ADE7C046B52B0008FBFFFF7F39
:102DA000075A0108315A0108A52E5AE2704700005F
:102DB00010B5024B1B689847FBE7C046C4000020D3
:102DC000F7B5836A01919B0802D1214B1B889B08B0
:102DD000066B9C003419620700D5043C8027221F33
:102DE0007F0417602700019A2500083F3A600022FF
:102DF000403D29009446624604C18F42FBD1220027
:102E0000C769203A1760019AC5624263C278022AF4
:102E100019D0104A32600E4A12680192D20012D5BF
:102E2000112B10D9103B5B08DB005B421A00383ACB
:102E3000A4182A000849A24206D1EB1804339E4286
:102E400001D2054A1A60F7BD083A51601160F2E7F5
:102E5000DC5A0108A52E5AE2CCCCCCCCC36A19624C
:102E60007047C36A19625A627047000010B50C4877
:102E700000F0D6FA02000B4B0B481A6000F0D0FAB3
:102E800002000A4B0A481A6000F0CAFA094B18609F
:102E900006F04EF90021002002F0DEFB10BDC04616
:102EA000D45A010814150020D05A0108080B00203C
:102EB000CC5A0108000B002010B5FFF779FF10BDB8
:102EC00010B5040000F0FEF921000200014805F0F1
:102ED00059FA10BD945A010810B5FFF78DFE10BDC8
:102EE000034A0449044B891AD9601A617047C046E5
:102EF000581B0020007E0020C800002000F072FC5B
:102F0000FFF7EEFF0348002100F01CFB00F052F930
:102F1000FEE70000C8000020012110B5024B494225
:102F2000186800F09FFA10BD080B002010B5024B86
:102F3000186800F0C1FA10BD080B002080F3098862
:102F40007047EFF309807047684680F309884A4864
:102F50000078C00703D1032080F314887047022053
:102F600080F314887047454B9C46EFF305831B069E
:102F700005D1EFF31483DB0701D000DF7047604712
:102F80003F4B9C46EFF305831B0605D1EFF31483FB
:102F9000DB0701D000DF70476047EFF309808169EC
:102FA0000239097800292BD1A6461FC8A4467446C9
:102FB000E047EFF3098307C3324B06CB91421CD0A5
:102FC000083B00290DD0EFF309802038C862F0C01B
:102FD00044464D4656465F46F0C00CB401F0ACF98D
:102FE0000CBC1A60D06A1030F0C8A046A946B246A0
:102FF000BB4680F309882038F0C80220C043004750
:1030000010B5214A1268914209D8204C89006458B1
:10301000A6461FC8A446F047EFF309840FC410BDAD
:1030200001F00EF9174B06CB91421AD0083BEFF393
:1030300009802038C862F0C044464D4656465F4677
:10304000F0C00CB401F078F90CBC1A60D06A1030F2
:10305000F0C8A046A946B246BB4680F3098820388E
:10306000F0C80220C043004701F048F9DAE701F058
:1030700043F901F043F9D5E7BE5A0108433E000881
:10308000613E0008541A002000000000FCFFFFFF12
:10309000002230B50B4C2368002B0AD103608160FD
:1030A000002B02D09D68691A9960002A08D0106030
:1030B00030BD9D68A942F1D31A00491B1B68EBE79C
:1030C0002060F5E7101A0020002313B50200984293
:1030D00015D0431C15D00C4C0C49230088420ED847
:1030E000FA200B4B800050431B680193013BC01832
:1030F00001990EF00BFB2300A04200D883B2180008
:1031000016BD044BFBE7C046FEFF000000093D0072
:10311000905A0108FFFF0000002806D0830705D160
:1031200003785A4253415B42184070470020FCE745
:10313000B0B50F4D00AF2878002815D10D4C23688D
:103140000533D97F01F06EF92368DA78FF2A03D1BD
:10315000DA6A203282F309886268002A00D10CC43E
:1031600001F014FB01232B70BD460020B0BDC0460A
:103170000D1A0020541A0020014B18787047C046E1
:103180000D1A002090B5EFF31084002C07D1EFF357
:103190000584002C03D1EFF31484E40702D4034B1D
:1031A000187890BD024FBC4600DFFAE70D1A0020E8
:1031B00079310008F0B589B000AFEFF310838225B4
:1031C000002B3AD1EFF30583002B36D1FFF7DAFF5E
:1031D000002807D11B4C2468002C03D06468002C05
:1031E00000D0A047EFF3148403263440022C18D0FB
:1031F000B4421DD0FF25012C1FD020243C1984F39C
:103200000988114C2478E4070FD5022484F314882C
:10321000BFF34F8FBFF36F8F0C4FBC4600DF05002D
:103220000BE0094C2478E407F6D486F31488EFE722
:10323000054CFF252478E407EED52800BD4609B0EB
:10324000F0BDC046441A0020BE5A010831310008C2
:1032500070B50B001500002802D10024200070BDBD
:103260000668002EF9D00422845EE21C92B2062A7F
:10327000F3D80022C168914200D0026904340902E7
:103280002143300001F00EF90028E6D00A4B013846
:103290008000C458094AE36A5A63094B1B68002B33
:1032A00007D09B68002B04D0E07829009847E063A2
:1032B000D4E7E563D2E7C0467014002089340008E3
:1032C000441A002010B501F0A5F8031E03D0013800
:1032D000024B8000C358180010BDC0467014002077
:1032E00010B5FFF719FF8023041E0FD0084B1B6891
:1032F000002B04D0DB68002B01D0C06B9847E0782E
:1033000001F022F98123FF2800D00023180010BD0E
:10331000441A0020002310B5984204D0FFF7D4FED1
:1033200001F06AFA4023180010BD0000B0B5050096
:10333000EFF310848220002C07D1EFF30584002CDA
:1033400003D12800014FBC4600DFB0BD1533000893
:10335000830706D1002807D0436901691B6818005C
:10336000704700231900FAE70300FBE790B504005B
:103370000800034FBC4600DF20606160200090BD64
:103380005133000810B5031E0AD00468231E07D06D
:10339000002322789A4203D1200000F073FD23001D
:1033A000180010BD70B5032405000E0004408023F2
:1033B000002C12D1002810D00278032A0DD1080069
:1033C000FFF782FE0100280000F034FE23000128F0
:1033D00003D1C133002E00D1403B180070BD10B5A1
:1033E0000324802304400AD1002808D00278032A4D
:1033F00005D100F0ABFD8123FF2800D02300180089
:1034000010BD10B503248023044007D1002805D047
:103410000278032A02D100F03DFD2300180010BD00
:10342000F8B50500EFF31086002086420FD1EFF3C8
:1034300005843000002C0AD1EFF31480C00707D4B4
:1034400006480078002803D12800FFF79BFFF8BD4D
:103450002800034FBC4600DFF9E7C0460D1A0020E4
:1034600085330008B0B50500EFF310848220002CEE
:1034700007D1EFF30584002C03D12800014FBC468F
:1034800000DFB0BDA533000801210848B0B54942AE
:103490000068FFF7E7FF064FBC4600DF0400FFF7B8
:1034A0001BFD2000034FBC4600DFFEE7081A00208A
:1034B000C5320008E1320008B0B50500EFF3108412
:1034C0008220002C07D1EFF30584002C03D12800C3
:1034D000014FBC4600DFB0BDDF330008F7B5060082
:1034E00000910192EFF310820024A24210D1EFF379
:1034F00005831400002B0BD1EFF31483DB0709D4F1
:103500000D4B1B78002B05D1019AFFF7A1FE04009B
:103510002000FEBD0121094D49422868FFF7A2FFA6
:1035200030000099019A064FBC4600DF040028686D
:10353000FFF7C2FFECE7C0460D1A0020081A002072
:103540005132000810B50022FFF7C8FF10BD00007F
:10355000F8B50500EFF310838224002B14D1EFF3AC
:103560000583002B10D10121084E49423068FFF736
:1035700079FF2800FFF7B0FC2800054FBC4600DFAC
:1035800004003068FFF798FF2000F8BD081A0020FB
:10359000E1320008B0B50500EFF310848220002C62
:1035A00007D1EFF30584002C03D12800014FBC465E
:1035B00000DFB0BD0334000810B5031E0FD004684F
:1035C000231E0CD0002322789A4208D1054813000C
:1035D000814204DC89B2200000F08EFD2300180037
:1035E00010BDC046FFFF000070B503240500044075
:1035F00012D1002810D00378022B0DD10800FFF75C
:1036000063FD0100280000F0C3FD03002000012B32
:1036100001D06888013070BD01204042FBE7000006
:1036200010B50324802304400CD100280AD002786E
:10363000022A07D14188044A0133914202D000F0A6
:1036400091FD2300180010BDFFFF000010B50324FA
:103650008023044007D1002805D00278022A02D135
:1036600000F050FD2300180010BD000010B5032429
:10367000802304400CD100280AD00278022A07D106
:103680004188044A0133914202D000F0A3FD230097
:10369000180010BDFFFF0000F8B50500EFF310861D
:1036A000002086420FD1EFF305843000002C0AD1B0
:1036B000EFF31480C00707D406480078002803D130
:1036C0002800FFF779FFF8BD2800034FBC4600DF54
:1036D000F9E7C0460D1A0020B935000890B5EFF3A0
:1036E0001084002C07D1EFF30584002C03D1034F85
:1036F000BC4600DF90BD01204042FBE7E9350008F1
:10370000B0B5EFF31084002C03D1EFF30584002C47
:1037100002D0FFF7ABFFB0BD014FBC4600DFFAE7B8
:1037200021360008B0B50500EFF310848220002C8C
:1037300007D1EFF30584002C03D12800014FBC46CC
:1037400000DFB0BD4D36000810B50300041E0FD0D9
:1037500001680B1E0CD04068031E09D000230278BC
:103760009A4205D10431890089B200F037FA6368C2
:10377000180010BD70B5124D2B78002B01D100F050
:1037800089FFFF220F4B2C781B689A70002C11D1F7
:1037900021000D48FFF7D8FF0C4B220018602100D4
:1037A0000B48FFF755FD0B4B18600B48FFF738FE31
:1037B0000A4B1860012300202B70094B187070BD54
:1037C0000C1A0020541A0020C45A010810150020B9
:1037D000E05A0108041A0020F85A0108081A0020CB
:1037E0000D1A0020B0B5EFF310858224002D0AD108
:1037F000EFF30585002D06D1EFF31484E40704D41C
:10380000FFF7B8FF04002000B0BD024FBC4600DF48
:10381000F8E700007537000830B5040085B00D00EA
:10382000002817D00378012B14D10800FFF74CFCB7
:1038300002A90200200000F0DFF9012808D12800C9
:10384000451EA841800102990022130005B030BD39
:103850001020F8E780200021F6E770B580230400EF
:103860000E00150000280ED0002A0CD10278012A83
:1038700009D100F01BFA8123002804D03100200078
:1038800000F018FA2B00180070BD0000F8B5124EB9
:103890003468002C06D00127A368013BA360A2680E
:1038A000002A00D0F8BD0D4B25682100186835604E
:1038B000FFF7D3FF002802D00420FFF701FB637954
:1038C000012B07D1E1682000FFF7E2FB002DE9D0D2
:1038D0002C00E4E72771F9E7101A002010150020EA
:1038E0007FB504001600081E01D0002A04D08023F2
:1038F0002360200004B070BD0B78012BF7D102A922
:1039000001AD00F0DDF9042804D00196230007CDB5
:1039100007C3EEE710230193F8E70000B0B50400F9
:103920001500EFF31080002803D1EFF30580002885
:1039300005D02A002000FFF7D3FF2000B0BD08000B
:103940001100034FBC4600DF20606160A260F4E715
:103950001938000810B5012486B06442094B2200D2
:10396000196803A8FFF7DAFF039B102BF6D104991F
:1039700001A8FFF7FBFC019B002BEFD002989847B2
:10398000ECE7C0461015002010B5038B42781943B0
:1039900004000183438B062A14D11A000A40934283
:1039A0000FD199432183200000F0DCF80123082186
:1039B00020006370628BFFF754FA2100054800F085
:1039C0000BF810BD052AFCD11A000A40F9D0428339
:1039D000E7E7C046141A0020027830B5013A8C7827
:1039E0004368D2B2002B02D09D78A54208D24B602A
:1039F0004160022A07D8002B00D09960886030BD52
:103A000018005B68EEE700238B60F8E7436810B5A9
:103A100004785968013C41600022022C06D891428A
:103A200001D088605A609A60180010BD5A60FBE7A8
:103A3000034B5A6842600022586082607047C0465B
:103A4000141A0020124A10B5D368002B13D0938AA1
:103A5000D4688B420DD3C460D060C4680261002C6E
:103A600000D020615B1A9BB28382918ACB1A938229
:103A700008E0002C07D10024CB1AC460D06002619A
:103A80009382848210BDA28A9B182200E0E7C04680
:103A90002C1A002070B5194DEB68002B09D00126B7
:103AA000AB8A013BAB82AA8A002A02D1EC68002CC7
:103AB00000D170BDA368002B08D0616859606168AF
:103AC000002901D08B6062600023A36021000C48B4
:103AD000FFF782FFA38AAB826378042B04D1094BE2
:103AE000E28A1B689B18A3820022E3686670EB6081
:103AF000934201D01D61E2602261D4E72C1A0020BC
:103B0000141A00209C1A00208368002B06D04268FB
:103B10005A604268002A00D093607047044B5A688C
:103B2000904202D142685A60F7E7131EF7D1F4E7DA
:103B3000141A002070B584680500002C05D1437864
:103B4000012B0CD1064C03E0A4682378002BFBD09A
:103B50002800FFF7D9FF29002000FFF73DFF70BDC7
:103B6000141A0020036910B5002B0DD0C268DA606A
:103B7000C268002A09D0998A848A09199982136136
:103B80000023C3600023036110BD9A82FAE700009E
:103B900070B5114AD478EFF31086EFF3108372B644
:103BA00093789C4211D90133937013785D1CAC4219
:103BB00000D100251570002E00D162B69C4206D9B6
:103BC000DB00D3185860996070BD002EF5D002203C
:103BD000FFF776F9F8E7C0468C1400200123037044
:103BE0000023103989084370837043600381438147
:103BF0008381C1817047000070B51500828904007F
:103C0000002A3AD04389181D80000059013308600A
:103C1000E1899BB26381994201D10023638163688A
:103C2000002B1ED06378022B1BD12000FFF7EEFE85
:103C300005000021FFF712F92389E9691A1D920096
:103C400011510133E2899BB223819A4201D10023B1
:103C500023812800FFF786FF280000F0A1FB002049
:103C600070BDEFF31083EFF3108172B60020013ABC
:103C7000A2818342F4D162B6F2E70120002DEFD099
:103C80006268094B002A09D019682000FFF7A4FEDA
:103C90002800082100F0A4FB0120E1E71B68636015
:103CA0005A609C606070F3E7541A0020C3898089D1
:103CB000181A704710B5FFF76BFF00F0ADFA10BD92
:103CC00010B5040083890020834222D06389043325
:103CD0009B001B590B606378022B05D1010020006B
:103CE000FFF756FF00F098FAEFF31083EFF310821E
:103CF00072B6A289013AA281002B00D162B6638913
:103D0000E28901339BB2638104209A4201D10023EE
:103D1000638110BD436870B504000D00002B4AD0CC
:103D20004678022E1FD0032E0AD0012E42D1FFF773
:103D30006DFE04002A001021FFF793F866700DE075
:103D4000080000F07EF8051E34D02000FFF75EFE6C
:103D500029000400FFF782F8012363702000FFF7B9
:103D600001FF210023E0FFF751FE05000021FFF7CE
:103D700075F82389E9691A1D92001151EFF3108239
:103D8000EFF3108172B6A1890131A181002A00D11F
:103D900062B60133E2899BB223819A4201D10023AA
:103DA0002381012328006B70FFF7DCFE29001148F6
:103DB000FFF712FE70BD8289C089824215D2238925
:103DC000191D89000D51EFF31081EFF3108572B6C4
:103DD0000132A281002900D162B601339BB2984220
:103DE00001D02381E6E70023FBE70320FFF768F813
:103DF000E0E7C046141A002030B50300002A18DAA4
:103E00000720102452005208073282430120002A62
:103E100016D015198D4213D859181C1950425960E3
:103E20001C609A600918A318994207D31B501C0004
:103E3000F9E70320033282430C24E7E700202060E7
:103E400030BDEFF3108272B601231A400368002BD5
:103E500001D019680160002A00D162B618007047CD
:103E60000300012099420CD35A68914209D2EFF322
:103E7000108272B61868086019600020D30700D459
:103E800062B670470323037000234380436083605E
:103E9000C3607047F8B543880400002B14D08068D5
:103EA000036A9C422BD1E3680362431DDB7F026AF5
:103EB000002A2CD182789A4206D08370214B1B684D
:103EC000984201D0FFF736FE012765681E4E002D8F
:103ED00028D17368002B0ED01A4F9A7839688B78E6
:103EE0009A4208D93000FFF777FD01223B6828008D
:103EF0005A7000F055FA00202070F8BD1300002B16
:103F0000D3D0DA689442F9D1E268DA60CDE751683B
:103F1000002905D08D78291C9D4200D2191CCBB2F6
:103F2000D268C5E72000FFF771FD05000021FEF70C
:103F300095FF2800FFF716FE6F7029003000FFF78D
:103F40004BFDC2E7541A0020141A0020F7B543882D
:103F50000500FF20002B0BD0344AA968126801929B
:103F6000914205D1013B9BB26B80002B01D0002018
:103F7000FEBD0B6A9D4235D1EB680B624B1DDB7FAA
:103F80000C6A002C36D18B706A68294F002A3CD00D
:103F90002800FFF73BFD06002100FEF75FFF300021
:103FA000FFF7E0FD01236B80336AAE60EB601F4BCF
:103FB000356219687B688A789B7830009A420DD206
:103FC0003800FFF709FD38003100FFF705FD012239
:103FD000164B20001B685A700123737000F0E0F943
:103FE000C5E71300002BC9D0DA689542F9D1EA6819
:103FF000DA60C3E76268002A05D09078021C984214
:1040000000D21A1CD3B2E468BBE77A6892789A426D
:10401000ADD93800FFF7E0FC0122044B20001B68FB
:104020005A7000F0BDF92000A2E7C046541A0020E3
:10403000141A002070B5428804000E00164D002AA4
:1040400008D12B68196A8360C160186200200132B0
:10405000628070BD836829688B42F7D00120002EF2
:10406000F7D08A789978914203D29A701800FFF7B6
:1040700061FD6268002A09D029682000FFF7ACFCC6
:104080003000092100F0ACF90120E2E72B68636001
:104090005A609C60F4E7C046541A00200022034B8B
:1040A0001A60034A1268DA807047C046481A002036
:1040B000D85A010810B50D4B0D4C186862680D49AF
:1040C000904205D01A60DA880868013A82189A800E
:1040D00098880A88904208D1002220001A60FFF7D1
:1040E00095FC01002000FFF777FC10BD481A002066
:1040F000141A00209C1A0020022303700023418020
:1041000043607047F8B5050001276C68134E002C1A
:1041100014D17368002B0ED0114F9A7839688B78C0
:104120009A4208D93000FFF757FC01223B68200073
:104130005A7000F035F900202870F8BD2800FFF70C
:1041400065FC04000021FEF789FE2000FFF70AFD50
:10415000677021003000FFF73FFCD6E7141A0020FB
:10416000541A0020436810B5002B0DD0FFF74EFC09
:1041700004000121FEF772FE2000FFF7F3FC20008F
:1041800000F00EF9002010BD438801334380F9E7A9
:1041900010B543880C00002B04D0013B4380002362
:1041A000180010BD01230029FAD04268084B002AEC
:1041B00008D01968FFF710FC0721200000F010F963
:1041C0000123EDE71B6843605A609860F4E7C0463E
:1041D000541A002010B50021FFF7DAFC00F01CF89B
:1041E00010BD0000436810B5002B0ED0FFF70EFC89
:1041F0000400FFF7B7FC012120006170FEF72EFEDE
:1042000021000448FFF7E8FB10BD438801334380D9
:10421000FAE7C046141A0020064B1B78002B04D185
:104220008022054B52051A6070470122034B1A7019
:10423000FAE7C0466C0B002004ED00E06D0B002097
:104240001B4B70B5186801234370FFF7F1FB194C45
:104250006578A378002B06D165701748FFF7D6FB69
:1042600000F080F870BDEB00E31858680278002A6F
:1042700014D1996889B2FFF787FBE37801359D4235
:1042800000D10025EFF31083EFF3108272B6A2780D
:10429000013AA270002BDCD162B6DAE7012A03D121
:1042A0009968FFF737FDE8E7FFF79CFFE5E7C046B1
:1042B000541A00208C140020141A0020094B0120ED
:1042C0001A68094B40421A600022084B1A60084BDA
:1042D00007321A60FF23074A1B0611680B4313605D
:1042E0007047C046F45A010814E000E018E000E00E
:1042F00010E000E020ED00E0704700000B4B10B52F
:10430000186801234370FFF793FBFFF7D3FE084AB9
:10431000136801331360FFF7BDFBFFF7B7FA0548D9
:10432000FFF774FB00F01EF810BDC046541A0020C1
:104330009C1A0020141A002010B5084B1B68DA786C
:10434000022A0AD01A6BDB6A9A4203D8044B12681D
:104350009A4202D00120FEF7B3FD10BD541A00208E
:10436000A52E5AE2074B10B5586002234370064B46
:104370001B68002B04D01B69002B01D0C06B984731
:1043800010BDC046541A0020441A002010B503483E
:10439000FFF73CFBFFF7E6FF10BDC046141A0020F4
:1043A00070B5041E02D1FFF7F1FF70BD0A4EA2786E
:1043B0003068012583789A4207D9FFF739FB3368C3
:1043C00020005D70FFF7CEFFEFE765702100034826
:1043D000FFF702FBE9E7C046541A0020141A002038
:1043E00070B50D0000280ED0074B084C984203D042
:1043F00001002068FFF726FB236805485D70FFF782
:1044000005FBFFF7AFFF70BDFFFF0000541A00204F
:10441000141A0020024B1B68181E00D0D878704771
:10442000541A002010B5002816D11A4B1B68997039
:104430000533D977184843689B788B4202D800220D
:10444000100010BD134C2168FFF7C6FA0122236843
:104450005A70FFF79BFFF2E7104BFF221B88984230
:10446000EED8431E0E489B001C58002CE8D0631D5C
:10447000A170D977074B1B689C42DBD02000FFF767
:1044800059FB6378012BDAD10348FFF7BFFAFFF736
:1044900087FFD4E7541A0020141A0020C05A0108DC
:1044A00070140020F7B51F00CBB215005A425341DB
:1044B00000902148CE18FFF7C4FC041E02D100254D
:1044C0002800FEBD056301251C4B320A1988826253
:1044D0008D42F4D86B1E01931948AB00043BC358BE
:1044E000002B01D00135F3E70121F6B26170611DA7
:1044F000E570E761A7632370A670CE77A11D6360A6
:10450000A360E36023612362A382E3822383638346
:10451000CB77002A03D10B48FFF793FC20632000E0
:104520000099FEF74DFC6B1E054A9B002000D450FD
:10453000FFF736FFC4E7C04638180020C05A01080C
:104540007014002060120020F7B54C4D002803D0F5
:104550002B68DB78984240D100232C6801276370D8
:10456000FEF7EFFCE062FFF7E7FE2B681C6A002C09
:1045700013D12A684249D3784248013B9B005C50E2
:10458000116BFFF76DFC29683F480C63FFF768FC6F
:104590002C60FFF7FBFE2000FEBD6368002B16D0E9
:1045A0002000FFF733FA06000021FEF757FC300029
:1045B000FFF7D8FA777031003448FFF70DFAE36857
:1045C000326A6780A660E26034621C00CFE7E2686E
:1045D0006380A360E3601400C9E72D4BFF241B88B0
:1045E0009842D8D8013883000193019A244BD658B9
:1045F000002ED0D03000FFF787FA3000FFF7B2FA74
:10460000346A002C17D11E4B019A316B1D489C5007
:10461000FFF726FC310034631B48FFF721FC1B48E1
:10462000296843689A788B789A42B4D901234B70F1
:10463000FFF7D2F9ADE76368002B18D02000FFF731
:10464000E5F907000021FEF709FC3800FFF78AFAB8
:10465000012339007B700D48FFF7BEF90122E368A2
:1046600062803A6AA760E2603C621C00C9E7E268C7
:104670006380A360E3601400C3E7C046541A0020BF
:10468000701400206012002038180020141A002036
:10469000C05A01082D4B70B5198800231C002C4806
:1046A0008B424ED32B4B402219882B48FFF7A4FB9B
:1046B00080222A4B12061B88294E1A43294B3000B0
:1046C0001968FFF799FB284B08221988274B00250A
:1046D0001868FFF791FBFF23254C3000E370FE3B89
:1046E0006370631DDD77A31DDD77A5622570A5705E
:1046F0006560A560E56025612562A582E582258368
:104700006583FFF79EFB1B4920632000FEF758FBE3
:104710000422194B20001A705D60184B1A70DD607E
:104720001D619D82164B1C6002236370FFF71AFE09
:10473000144A154B12781D705D70DA70FFF7AEFCED
:1047400070BD9A00121814600133A9E7C05A01081D
:10475000701400208C5A010838180020DC5A010817
:1047600060120020885A01088E5A0108040B0020AC
:104770005C1A0020B92E0008141A00202C1A002000
:10478000541A0020BD5A01088C140020FF22154B3A
:104790001204196810B50A431A601B68124A5B02BA
:1047A00011689B0E9B060B431360FFF787FD0F49B3
:1047B0000860002815DB83080D4A9B009B1818220F
:1047C000C0001040E73282401C6822431A600A6829
:1047D000084953099B005B181F210A401E3991406C
:1047E000196010BD20ED00E01CED00E0501A002023
:1047F00000E400E000E100E010B50321FFF7F0FD68
:1048000010BD000003220D4B30B51C682240032A66
:104810000ED080221205C024156864051419256085
:10482000074C0432A242F6D103241A6822431A60CC
:10483000044BC0188000016030BDC046000001403C
:10484000C00000081000000810B5041C431C04D16F
:1048500007480849262203F02DFD201C002100F006
:10486000A9FD0F20012320408340181C10BDC04625
:10487000715D0108245D010870B5041C0E1C2180C7
:104880004B1C0FD00806000F00F03CFD051C301C2F
:10489000FFF7DAFF2B1C1033A36028350833606064
:1048A000E360256170BD08B50023C05E00F0B0FD77
:1048B00008BD000038B50022835E051C0C1C0133C6
:1048C00004D107480749492203F0F4FC0023E85EBD
:1048D000211E012900D0002100F06CFD38BDC0462A
:1048E0006C5D0108245D0108F7B59424061C0F1CBB
:1048F00000254443154B04341C190193BD4223D0B9
:1049000001210A1C9423AA4073430198C3581342FF
:1049100017D0236B226E9C460B1C93400C4A5069A7
:1049200018420ED05361206800280AD062461269EE
:104930001A4203D1074B49181B6801E0054B1B685D
:10494000984701350434D9E7F7BDC046700B002005
:10495000000401402C0D002008B500200221FFF7C3
:10496000C3FF08BD08B501200221FFF7BDFF08BD48
:1049700008B502200C21FFF7B7FF08BDF0B587B0DE
:10498000051C0C1C04920593081C4B1C52D00F23D1
:10499000080918400B400193012B03D8264F00262D
:1049A00005230AE0019B023B012B03D8234F01267C
:1049B000062302E002260723214F009300F0A2FC09
:1049C00007210390201C00F0F5FC6B46391C0127E1
:1049D0001B785BB2181C0293FFF714FF3A1C029B72
:1049E00094219A40174B71431A606B461B78AC8137
:1049F0002B70019B00209A00134B6E60D458134A11
:104A0000A7408B58A8601F43252373431B198F5061
:104A1000059C990051184C60191C18330C31890001
:104A20009B00D3185118019A039C5A60084B049AB2
:104A30004C601A6007B0F0BD59490008654900088C
:104A40007149000800E100E0845D0108700B00205E
:104A50002C0D0020F8B5051C466880890F22011C2A
:104A6000174B11408C00E4589023012700B2000935
:104A700002405B03D0183B1C8B408002191C01F0E4
:104A8000E5F99423A74073430E4A9958B9439950C6
:104A900025235E4333190024990051184C60191CDA
:104AA00018330C3189009B005118D3184C605C609E
:104AB0000C23E85E211C00F0D3FCAC60F8BDC046BE
:104AC000845D0108700B0020022270B5124C23682F
:104AD0001969114206D0D968114203D0053A1A610A
:104AE00003F0E0FB042223681969114213D0D9684E
:104AF000114210D0093A094E1A615D6A084A3368BA
:104B0000EB1A934207D901F0A9F8FA222368920020
:104B1000AA189A63356070BDF01A0020300D00208D
:104B2000E703000030B587B0694602A802F0B4FB85
:104B300002F0A0FB0122234B0090D969224C1143C3
:104B4000D961D9691140019101991969114319611C
:104B50001969914319618023DB05236001235B42BE
:104B6000E360059B002B00D0400018490CF0CEFDFF
:104B7000002501386060201C2561A5606561A56184
:104B800002F0F8FB0F201249FFF73CFE8022114B88
:104B900012021A60291C201C02F012FC201C0421A5
:104BA00002F00EFC23680C4A596A281C1160FA2195
:104BB00012688900521804219A63DA680A43DA609D
:104BC00007B030BD00100240F01A002040420F0034
:104BD000C94A000800E100E0300D0020044B10B588
:104BE0005C68201C01F0D0FB201C01F0B7FF10BD59
:104BF000340D0020044B10B51C68201C01F0C4FBD0
:104C0000201C01F0ABFF10BD340D002070B58901F0
:104C1000002815DA0F23C0B20340083B124A9B0854
:104C200003249B009B18FF222040A040141C8440BA
:104C3000DD691140A54381402A1C0A43DA6112E074
:104C400084080A4B0326A400E418FF233040B04038
:104C50001E1CC0258640AD0062591940B2438140F8
:104C6000131C0B43635170BD00ED00E000E100E058
:104C7000031CF7B55C331B7800260093031C5D33DF
:104C80001B78041C01936B469E570F1C301CFFF7CA
:104C9000B9FD04256B465D57391C281C6C34FFF7A1
:104CA000B1FD2478301C63425C410134211CFFF7C4
:104CB000ADFF281C211CFFF7A9FF01221F21101C9A
:104CC000009B0B409840031C03480360019B194064
:104CD0008A400260F7BDC04600E100E0031C10B549
:104CE0005C305D3300781C7840B200F0C5FF60B2E4
:104CF00000F0C2FF10BD000010B5011D5030037858
:104D00000648002B05D05A1E5442624104485242C4
:104D10001040044A9B00995010BDC046F54B000856
:104D2000DD4B0008340D0020031C10B5144A046844
:104D3000596D446010680CF0E9FC14235843A369D2
:104D40001B0402D501380028F9D10E4B9C4208D132
:104D500080210D4B89031A690A431A6119690B4AAC
:104D60000AE00B4B9C4209D18021074BC9031A6909
:104D70000A431A611969074A0A401A6110BDC04600
:104D8000E00000200054004000100240FFFFDFFF61
:104D900000580040FFFFBFFFF7B5041C031D01933F
:104DA0002C4B0D1C1868616D0CF0B0FC142358439B
:104DB00063689A69120402D501380028F9D1264F98
:104DC000BD4213D0254EB5420CD0254B9D420BD091
:104DD000BF2224482449520003F06CFABD4205D09A
:104DE000B54234D1214B02E0214B00E0214BA360BE
:104DF0001B4B9D4210D123681A1E1F4B9A4203D1B0
:104E00008020400301F018FF1C4B22689A4203D116
:104E10008020800301F010FF23681A1E164B9A426F
:104E200004D11021164A136B0B4313630021019820
:104E300001F0DCFE012323610023019863612362FA
:104E40006362E360A36101F027F96565F7BD0023A4
:104E5000A360E1E7E0000020A0860100801A0600C0
:104E600040420F00C45D0108F85D01085018900031
:104E700018087000895E80100054004000580040FF
:104E800000100240F0B5041C85B00E1C081C4349FC
:104E9000151C03F0F3F9424F0090391C281C03F055
:104EA000EDF9231C5833011C1E805D80009803F02F
:104EB000C5F93A4B206000930197431C05D10E229F
:104EC00038483949FF3203F0F5F9384B22689A42E5
:104ED00022D1231C002250331A708023344A9B03B2
:104EE000D169301C1943D161D269009913400293F2
:104EF000029B03F087F9281C019903F083F9301C09
:104F0000012100F085FA281C012100F081FA231C00
:104F100017225C331A705A70264B22689A4222D1AB
:104F2000231C012750331F708023214ADB03D169E2
:104F3000301C1943D161D269009913400393039B3C
:104F400003F060F9281C019903F05CF9301C391C4E
:104F500000F05EFA281C391C00F05AFA231C1822B3
:104F60005C331A705A70636D002B01D1124B63656C
:104F7000201CFFF7D9FE201C616DFFF70DFF221CDE
:104F800000236C32537013709370083A13708022B0
:104F900092042266A36605B0F0BDC046FC5A010823
:104FA000105C01083F5E0108F85D010800540040F4
:104FB0000010024000580040A0860100F0B585B006
:104FC0000392021D1D1C041C0A9B02928EB2002D2E
:104FD00002D0039A002A0AD10298311C01220A2326
:104FE00001F0B2F80025A84250D0023D4EE08022E8
:104FF000016E9204914203D1002B08D0226607E093
:105000002448014204D1002BF8D180235B0423669D
:10501000271C002364373B70201CFFF76DFE011C2A
:10502000201CFFF725FE226EABB200920298311CC5
:10503000039A01F057F9002826D1174B616D1868C3
:105040000CF064FB1E2358436E1C46431E233A7823
:105050001A4206D1013E002E03D0012003F09CF934
:10506000F4E7201CFFF73AFE002E02D03B78082B15
:105070000CD0231C58330021595E231C5A330022C4
:105080009A5E201CFFF7FEFE02256D42281C05B02B
:10509000F0BDC046FFFFFFFEE0000020F0B585B088
:1050A0000392021D1D1C041C0A9B02928EB2002D4D
:1050B00002D0039A002A0AD10298311C01220A2345
:1050C00001F042F80025A84250D0023D4EE0802277
:1050D000016E9204914203D1002B08D0226607E0B2
:1050E0002448014204D1002BF8D180235B042366BD
:1050F000271C002364373B70201CFFF7FDFD011CBB
:10510000201CFFF7B5FD226EABB200920298311C55
:10511000039A01F0A9F8002826D1174B616D186891
:105120000CF0F4FA1E2358436E1C46431E233A78B3
:105130001A4206D1013E002E03D0012003F02CF9C3
:10514000F4E7201CFFF7CAFD002E02D03B78082BA5
:105150000CD0231C58330021595E231C5A330022E3
:105160009A5E201CFFF78EFE02256D42281C05B0BA
:10517000F0BDC046FFFFFFFEE0000020021FD36F1E
:1051800013B5002B1AD0031C88331B68002B15D0D5
:10519000011C70310978002902D08021890401E0C6
:1051A00080214904041C1166116F126E8434009230
:1051B00089B29BB2226801F095F802E008236030C2
:1051C000037013BD082360300370704738B5041CAA
:1051D000051DC260281C00F05FFF201CFFF78CFD3E
:1051E000011C201CFFF744FD281C01F0B9F838BD54
:1051F000031C70B5002568331B78041C061FAB42E6
:1052000000D08568231C54330021595E231C56337B
:10521000301C00229A5EFFF735FE0021301C2A1C4C
:105220000B1CFFF7D3FF02236034237070BD0129EC
:1052300002D16930017004E0002902D101236A30F3
:1052400003707047002369300370704700236A3091
:105250000370704708B501F083F808BDFE210268AD
:1052600010B51368041C8B4313600438FFF736FD38
:1052700002236034237010BD08B503F033F8962084
:1052800003F095F8962003F092F8F8E770B5051C46
:105290000C1CA0B003F026F8291C6846221C08F05C
:1052A000C5F9051E03DC03F04BF820B070BD0A4BB6
:1052B0000A4E1B68002B04D1301C0221032200F08F
:1052C00029FB00246B46301C195D013400F088FC7A
:1052D000AC42F7D1E7E7C046D8110020A01A002061
:1052E0000FB407B504A901C90191FFF7CFFF03B0BF
:1052F00008BC04B0184708B502F080FA00F09EFC24
:1053000008BD00007FB5052841D80CF0F5F9031061
:105310001C28403480239020204A9B025169C005FC
:1053200019435161526913400193019B33E080237B
:105330001A4ADB0251691A481943516152691340F4
:105340000293029B27E08023144A1B0351691548EE
:1053500019435161526913400393039B1BE080235F
:105360000E4A5B0351691048194351615269134059
:105370000493049B0FE08023084ADB0351690B4828
:1053800019435161526913400593059B03E0084896
:1053900002F0F8FF002007B000BDC0460010024038
:1053A0000004004800080048000C004800140048B1
:1053B000595E010870B5061C88B00D1C431C04D151
:1053C000104811495D2202F075FF0F24300920407A
:1053D000FFF798FF01232640B34003932B1C0B4A91
:1053E00023409B009B5803A9019304936B065B0F1A
:1053F00005930323ED112C400693079400F06EFCF7
:1054000008B070BD715D01087A5E0108D05E0108C8
:1054100070B5061C0D1C431C04D10F480F497F2298
:1054200002F048FF0F20341C360904403040FFF7DB
:1054300069FF02230021AB4249412B1C49420B402A
:1054400003216400A140A340C2688A43191CC260C2
:10545000C2681143C16070BD715D01087A5E0108C8
:1054600070B50F24051C000920400E1CFFF74AFFF1
:10547000291CC36821404900CB40191C0323194053
:1054800034400901281C2143FFF794FF70BD704789
:10549000704770B5041C03685B6A98472368201C3A
:1054A0001B690021012298472368061C421C04D175
:1054B000201C9B6A9847301C10E01B6900210222C7
:1054C000201C9847051C2368311C1B690022201CE6
:1054D00098472368201C9B6A9847281C70BD0000D1
:1054E000084B10B51B68002B0AD1074C0221201C69
:1054F000032200F00FFA9621201C890100F034FBF2
:1055000010BDC046D8110020A01A002008B5031C09
:105510000020022B0DDD0749033B9B005A585850D1
:10552000824204D01368101C5B68984701E0012098
:10553000404208BD540D002070B50C1C151C0228FB
:1055400010DC0F4B1B68002B01D1FFF7C9FF661958
:10555000B44205D021780B4800F042FB0134F7E754
:10556000281C0BE00338084B8000C058002803D0EB
:1055700003681B68984701E00120404270BDC046A7
:10558000D8110020A01A0020540D002010B50C1CCA
:1055900002280BDC0C4B1B68002B01D1FFF7A0FF8E
:1055A0000A4800F0FFFA207001200BE00338084B96
:1055B0008000C058002803D003689B68984701E02A
:1055C0000120404210BDC046D8110020A01A002082
:1055D000540D002008B5031C0120022B0BDD033BFA
:1055E000054A9B009858002803D00368DB68984759
:1055F00001E00120404208BD540D002008B5031C05
:105600000020022B0BDD033B05489B0018580028A7
:1056100003D003681B69984701E00120404208BDA0
:10562000540D002008B5022804D880239B014B604C
:10563000002005E002F060FF0923036001204042E2
:1056400008BD08B5012000F043F808B5FFF753FE88
:10565000FDF754FC08BD704708B5FFF7FCFFFDF7E8
:1056600055F908BD0C4910B50B681818EFF30882FE
:10567000904205D30C220120084B40421A600AE0F8
:10568000074A1268002A04D0064C2468A2189042E7
:10569000F0D20860181C10BDDC000020541B002054
:1056A000500D0020540E002038B5074C051C23680F
:1056B000986803F069F82368D86803F065F8002D4E
:1056C00001D0FFF7D9FDFEE7E4000020012070477C
:1056D00008B5FFF7E9FF0120704708B5002103F086
:1056E000BDFF08BD08B5FDF717FC08BD08B5FDF7FF
:1056F0001DFC08BD10B503F0BFFD041E02D1024819
:1057000002F040FE201C10BDC25F010810B503F07E
:10571000B3FD041E02D1024802F034FE201C10BD6D
:10572000DF5F010808B5002801D003F0AFFD08BD18
:1057300008B5002801D003F0A9FD08BD031C04CB67
:1057400010B5041C002A00D1036022689A4204D0DC
:1057500003480449592202F0ADFD206810BDC0463F
:10576000FE5F01081260010838B50C4B0C4C083381
:105770000360051C201CFFF7E1FF0023201C094AE1
:105780009958A94201D10021995080220433520036
:105790009342F4D1FFF7D2FF281C38BD7060010896
:1057A000480D0020540D0020F0B585B00191374917
:1057B000051C04F0C7F8041E02D1FFF791FE61E05A
:1057C000281C334904F0BEF8002803D1FFF788FEF7
:1057D000012457E0281C2F4904F0B4F8002803D115
:1057E000FFF77EFE02244DE02B4E0024301CFFF715
:1057F000A5FF301C294FA600F359002B05D001341A
:10580000402CF7D1FFF79AFF3AE001235B42F351B6
:10581000FFF794FF2B783A2B06D1281C204902AAC7
:1058200004F018F8029826E002A8291C02F01CF9DE
:1058300002A802F065F9002801D1F05120E002A889
:1058400002F048F9002803D002A802F04DF912E056
:1058500002A802F036F9051E01D1F05110E00368EC
:1058600002A89F6802F020F90E4A019B011C134018
:105870001A1C281CB847094B03349851002801D141
:1058800001246442201C05B0F0BDC046045F01083D
:10589000636001080B5F0108480D0020540D0020D3
:1058A0005F600108FFFFFEFF7022031C406810B517
:1058B00042431C681549881854509A681969426017
:1058C000DA68C1608260021C596910320161196A8C
:1058D000041C91600021503461802180618121810C
:1058E0001A24195F013101D1082306E018215B5EFB
:1058F000013301D1042300E00C23536001F048FF81
:10590000002802D0024802F03DFD10BD580E0020D4
:10591000A4600108F0B5804F8BB0041C0D1C081C5E
:10592000391C161C02F0AAFC7C490190301C02F0C4
:10593000A5FC011C019802F081FC01972060431C2A
:1059400004D1774877496C2202F0B4FC2368764A88
:10595000934214D18021754AC901D0680843D060B0
:10596000D0688446674672483840D06090690843E2
:105970009061926911400291029A002216E06D4AEC
:10598000934215D18021694A890210690843106148
:10599000106984466746684838401061D0690843FA
:1059A000D061D26911400391039A0122626047E0FD
:1059B000624A934215D180215C4AC90210690843AA
:1059C00010611069844667465D4838401061D069AF
:1059D0000843D061D26911400491049A02226260A6
:1059E00042E0584A934215D18021504A0903106978
:1059F0000843106110698446674653483840106177
:105A0000D0690843D061D26911400591059A0322FB
:105A100062603DE04D4A934212D18022434B5203D3
:105A20001969114319611869494901401961D96916
:105A30001143D961DB691A400692069B04233AE0C0
:105A4000444A934210D12022384BD9681143D9607F
:105A5000D9689143D9609969114399619B691A404A
:105A60000792079B052326E03B4A934210D1402230
:105A70002E4BD9681143D960D9689143D96099698F
:105A8000114399619B691A400892089B062312E012
:105A9000324A934210D18022244BD9681143D960F5
:105AA000D9689143D9609969114399619B691A40FA
:105AB0000992099B07236360281C019902F0A2FB4D
:105AC000301C164902F09EFB6B1C03D0281C0121E0
:105AD000FFF79EFC731C03D0301C0121FFF798FCDC
