:020000040800F2
:100000000080002075520008A9520008A95200087B
:1000100000000000000000000000000000000000E0
:10002000000000000000000000000000EB2B0008B2
:100030000000000000000000712C0008B92C00082E
:10004000A9520008A9520008A9520008A9520008A4
:10005000A9520008A9520008A9520008A952000894
:10006000A9520008A9520008A9520008A952000884
:10007000A9520008A9520008A9520008A952000874
:10008000A9520008A9520008A9520008A952000864
:10009000A9520008A9520008A9520008A952000854
:1000A000A9520008A9520008A9520008A952000844
:1000B000A9520008A9520008A952000810B5064C20
:1000C0002378002B07D1054B002B02D0044800E019
:1000D00000BF0123237010BDA00A00200000000013
:1000E000401F0108084B10B5002B03D007490848F2
:1000F00000E000BF07480368002B00D110BD064B8D
:10010000002BFBD09847F9E700000000A40A00206C
:10011000401F0108980A002000000000164B002B29
:1001200000D1144B9D46402292029A1A9246002119
:100130008B460F461348144A121A07F07DFC0F4BEA
:10014000002B00D098470E4B002B00D09847002082
:10015000002104000D000D48002802D00C4804F0D6
:10016000B4FE07F0A7FB2000290004F071FE04F0A4
:10017000A9FEC0460000080000800020000000002A
:10018000434E0008A00A0020F81A0020CB4E0008B9
:100190000000000037B503680D001B6901A99847EE
:1001A000041E08D1054901980DF05CFC8421C905A5
:1001B0000DF0D6F8286020003EBDC0466666E63FDA
:1001C000704708B4024B9C46043808BC6047C046E0
:1001D000C101000810B50123002904D000F002F984
:1001E000013843424341180010BD000008B4024BDF
:1001F0009C46043808BC6047D501000873B56B46BF
:1002000000259C1D0E002100DD8000F0F5F80300A4
:10021000012807D020880DF051FF03490DF032FA74
:100220002B003060180076BD0000204173B56B468E
:1002300000259C1D0E002100DD8000F05BF903000D
:10024000012808D00023E05E0DF0E8FE03490DF020
:1002500019FA2B003060180076BDC046000020411E
:1002600008B4024B9C46043808BC60472D020008C5
:1002700010B5040004F040FE200010BD08B4024B8D
:100280009C46043808BC604771020008044B81603A
:100290001A0028334360BE2308320260037370479C
:1002A0003C0B010810B500F09FF90138434258415A
:1002B00010BD000070B50D1CFE2104008905281C2E
:1002C0000CF0CEFE0121002806D10749281C0CF0B5
:1002D000C7FE414241410231200000F0EDF90138F2
:1002E0004342584170BDC0460000E04010B50400D4
:1002F00000F095F9012801D1012010BD0121200055
:1003000000F0B2F90128F7D0FE2120008905FFF79F
:10031000D1FF013843425841EFE7000008B4024BD7
:100320009C46043808BC6047ED020008F0B58C46D6
:100330008668077B8BB011001C0002201F2B11D890
:100340000920634602AD220068442B7007F032FB9F
:100350000022631C009239002A00300006F026FFBC
:10036000431E98414042C0B20BB0F0BDF0B516003C
:100370000F221F000123057B85B084686A44117039
:1003800020000093290006F011FF00280CD10090F6
:100390003B0032002900200006F02AFF431E98414E
:1003A0004042C0B205B0F0BD0120F9E710B51C0015
:1003B000012A01D98023194313002200FFF7D6FF39
:1003C000431E9841C0B210BD10B51C00012A01D9CE
:1003D0008023194313002200FFF7A8FF431E984112
:1003E000C0B210BD0B0010B501220F21FFF7DEFFD8
:1003F000431E9841C0B210BDF0B589B007AC05915D
:100400002300022230210500FFF7D0FF002803D08F
:100410000126300009B0F0BD637802220093362136
:10042000230028002778FFF7C1FF0028F0D1637868
:100430000222019323783A21029328002300FFF738
:10044000B5FF0028E4D163780222039323782821A2
:10045000049328002300FFF7A9FF061ED8D1019BB3
:1004600020781D02029B7F081D4363782DB21B027A
:10047000184300B2401B0DF0D1FD009B041C58082E
:10048000C01B0DF0CBFD011C201C0DF0EBFA039BF3
:10049000041C1802049B184300B2401B0DF0BEFD63
:1004A000011C201C0DF0EEF8041C38B20DF0B6FD56
:1004B000011C201C0CF054FF0C490DF0D3FA0C4920
:1004C000041C0CF0D7FD00280DD10021201C0CF0DD
:1004D000BDFD3300002803D1201C0CF04DFE83B27B
:1004E000059A138095E7FA239B00F9E70000204165
:1004F00000007A44F0B58BB009AC079123000222CA
:1005000032210500FFF752FF002803D001273800F1
:100510000BB0F0BD08ABDE1C3300012235212800F2
:10052000FFF744FF0028F1D13378042201932378A8
:100530003C2102936378280003932300FFF736FFE2
:100540000028E3D1237866780493E37802220593A8
:10055000A3782A21069328002300FFF727FF071E10
:10056000D4D1019B36021D02C0239B001D40029B7B
:1005700020781D43049BED081E43637836B21B02AE
:10058000184300B2801B0DF049FD019B041C98012B
:10059000C0239B001840039B1843C008401B0DF06C
:1005A0003DFD011C201C0DF05DFA059B041C18028A
:1005B000069B184300B2801B0DF030FD011C201C6F
:1005C0000DF060F8041C28000DF028FD011C201C13
:1005D0000CF0C6FE03490DF045FA0DF0FFFC079B39
:1005E000188094E70000204137B56B46DC1D0122DE
:1005F000230020210500FFF7D9FE012200280CD19D
:10060000802321785B420B432370202123002800A4
:10061000FFF7DAFE421E9041C2B210003EBD37B570
:100620006B46DC1D0122230020210500FFF7BEFEE2
:10063000012200280BD17F21237828000B40237052
:100640005F392300FFF7C0FE421E9041C2B2100086
:100650003EBD00000A0010B50100024807F036FA5E
:10066000FEE7C046B80B010873B505000E0001296E
:1006700003D90F490F48FFF7EDFF6B46DC1D012240
:1006800023002021FFF792FE012200280DD1042330
:100690002178B6009943314321702300202128009E
:1006A000FFF792FE421E9041C2B2100076BDC046D6
:1006B000670200007C0B010873B505000E000329DA
:1006C00003D90E490E48FFF7C5FF6B46DC1D01221A
:1006D00023002021FFF76AFE012200280CD103230A
:1006E0002178280099433143217023002021FFF70E
:1006F0006BFE421E9041C2B2100076BDBE020000E9
:100700007C0B0108704708B4024B9C46043808BCB7
:100710006047C0460507000810B50123002904D032
:1007200000F068F9013843424341180010BD000051
:1007300008B4024B9C46043808BC604719070008FF
:1007400037B500240D0001A9019400F033FA03002D
:10075000012807D001980DF061FC03490CF092FFCD
:100760002300286018003EBD0000C84273B56B46E8
:1007700000259C1D0E002100DD8000F040FA0300E2
:10078000012808D00023E05E0DF048FC03490CF07E
:1007900079FF2B003060180076BDC0460000204174
:1007A00008B4024B9C46043808BC60476D0700083B
:1007B00010B5040004F0A0FB200010BD08B4024BEB
:1007C0009C46043808BC6047B107000810B50121F9
:1007D000040000F019F9012801D1012010BD002109
:1007E000200000F02CF90128F7D00021200000F0B3
:1007F00054F90128F1D00021200000F06BF9012804
:10080000EBD00221200000F081F90128E5D0012180
:10081000200000F096F90128DFD00020014B607322
:100820002361DBE70000C84108B4024B9C46043852
:1008300008BC6047CD070008044B81601A002833CC
:100840004360BA230832026003737047E80B010863
:1008500037B56B46DD1D0C00290000F00CF90128AE
:1008600015D02878202818D007D800280DD01028B7
:100870000ED00D4B0120236009E040280FD05028F6
:100880000FD03028F5D1094B04E0002323603EBD92
:10089000FE239B0523600020F9E7054BFAE7054B93
:1008A000F8E7054BF6E7C046000080BF0000C841EE
:1008B00000002041000048420000964270B50C1C28
:1008C000FE2105008905201C0CF0CAFB1021002820
:1008D00015D11349201C0CF0C3FB202100280ED198
:1008E0001049201C0CF0BCFB3021002807D10E4918
:1008F000201C0CF0B5FB4021002800D1103128004D
:1009000000F09DF80123984207D0290028001031FB
:10091000FFF79EFF013843424341180070BDC046B7
:10092000000020410000C8410000484210B5437B50
:1009300004000020012B08D021692000FFF7BEFF32
:10094000012802D001230020637310BDF0B58C464E
:100950008668077B8BB011001C0002201F2B11D86A
:100960000920634602AD220068442B7007F022F88C
:100970000022631C009239002A00300006F016FCA9
:10098000431E98414042C0B20BB0F0BDF0B5160016
:100990000F221F000123057B85B084686A44117013
:1009A00020000093290006F001FC00280CD10090E3
:1009B0003B0032002900200006F01AFC431E98413B
:1009C0004042C0B205B0F0BD0120F9E710B51400F7
:1009D0001A002300FFF7DAFF431E9841C0B210BD92
:1009E00010B514001A002300FFF7B0FF431E984112
:1009F000C0B210BD0B0010B501220F21FFF7E6FFBA
:100A0000431E9841C0B210BD73B56B46DC1D012278
:100A10000D0023001A210600FFF7D8FF012200284D
:100A20000BD123781A2193431D43300023002570F6
:100A3000FFF7D6FF421E9041C2B2100076BD73B5DB
:100A40006B46DC1D01220D00230010210600FFF77C
:100A5000BDFF012200280CD17021237830008B4388
:100A60001D43603923002570FFF7BAFF421E9041F5
:100A7000C2B2100076BD37B56B46DD1D0C002B00F1
:100A800001221021FFF7A2FF002804D170222B7849
:100A9000134023703EBD0120FCE773B56B46DC1D9F
:100AA00001220E00230010210500FFF78FFF012215
:100AB00000280DD108232178F60099433143217095
:100AC000230010212800FFF78BFF421E9041C2B285
:100AD000100076BD73B56B46DC1D01220D002300AE
:100AE00010210600FFF772FF012200280CD104211B
:100AF000237830008B431D430C3123002570FFF712
:100B00006FFF421E9041C2B2100076BDF7B56B4632
:100B1000DC1D0E002300012210210700FFF756FF05
:100B2000051E0CD102222378102193431E43013A63
:100B3000230038002670FFF753FF2800FEBD012573
:100B4000FBE773B56B46DC1D01220E00230011216B
:100B50000500FFF73BFF012200280DD1102321786B
:100B60003601994331432170230011212800FFF7FA
:100B700037FF421E9041C2B2100076BD37B501ADBD
:100B80000C002B0003222821FFF720FF00280FD1A3
:100B90006B78AA781B02120413432A78134380222D
:100BA0001204134202D0FF221206134323603EBDFB
:100BB0000120FCE713B50C0001A9FFF7DFFF0028B7
:100BC00009D16422019B5A43D3171B051B0D9B18A7
:100BD0001B13236016BD0120FCE737B501AD0C00E7
:100BE0002B0002222B21FFF7F1FE002805D16A78A5
:100BF0002B7812029B1823803EBD0120FCE773B5C1
:100C00006B469D1D0E002900FFF7E7FF041E07D16C
:100C10000023E85E0A210CF0DDF83080200076BD6C
:100C20000124FBE7704710B50123002903D000F031
:100C3000D9FB43424341180010BD10B586B00C00EB
:100C400003A900F0D3FC0123002807D0039B2360F5
:100C5000049B01936360059BA3600023180006B00A
:100C600010BD000037B56B46DD1D0C00290000F0FB
:100C700064FC03000120002B15D02878102813D025
:100C800005D800280CD00A4B012023600BE0202857
:100C90000CD083233028F6D1DB052360002002E04E
:100CA0008023DB0523603EBD8123F5E78223F3E744
:100CB000000080BFF0B585B002AC05000F00062231
:100CC0000021200006F0B8FE6B46DE1D3100280032
:100CD00000F00DFC002802D1012005B0F0BD6B46EC
:100CE0002800991D00F0CFFB0028F5D06B469B79BA
:100CF000082B04D13278002AEED11E0007E0002B29
:100D0000EAD13378002B1CD00426082BE4D1210033
:100D1000280000F050FC0028DED0637822781B0207
:100D20009B1833413B80E378A2781B029B18334128
:100D30007B80637922791B029B1833410020BB80A2
:100D4000CBE70626E3E7000037B56B46DD1D0C0058
:100D5000290000F0BEFB03000120002B0BD02878F7
:100D600030281FD008D8102815D0202818D00028E7
:100D700007D1002323603EBD502817D005D8402856
:100D800012D00C4B01202360F5E7602810D07028AA
:100D9000F7D1094B01E0FE239B0523600020EAE721
:100DA000064BFAE7064BF8E7064BF6E7064BF4E787
:100DB000064BF2E7000080BF0000C843000020415E
:100DC0000000C841000048420000C84200004843FB
:100DD00070B50C1C80210500C905201C0CF040F9E1
:100DE0000021884210D18121201CC9050CF038F95E
:100DF0001021002808D18221201CC9050CF030F9EF
:100E00002021002800D11031280000F07EFB434251
:100E1000584170BD10B5040004F06EF8200010BDFC
:100E200010B58021040000F096FB002801D10120BC
:100E300010BD0021200000F0A6FB0028F7D0002103
:100E4000200000F02EFB0028F1D080212368C90586
:100E50009B6A200098470128E9D00121200000F07A
:100E6000CAFA0028E3D00221200000F0DCFA0028B2
:100E7000DDD00421200000F0EEFA0028D7D00020B9
:100E8000014B6072E360D3E70000C842034B41604E
:100E900008330360322303727047C046280C0108F0
:100EA00037B56B46DD1D0C00290000F046FB030042
:100EB0000120002B11D0287810280FD005D8002849
:100EC00009D0094B0120236007E020280AD03028F0
:100ED000F7D1064B03E0064B23603EBD054B236074
:100EE0000020FAE7044BFAE7000080BF9A993B42E2
:100EF0009A997940713DFA407B147A4137B56B4637
:100F0000DD1D0C00290000F018FB03000120002B60
:100F100011D0287810280FD005D8002809D0094B07
:100F20000120236007E020280AD03028F7D1064BA3
:100F300003E0064B23603EBD054B23600020FAE72B
:100F4000044BFAE7000080BF7B943B437B147A415B
:100F50007B14FA417B147A4237B56B46DD1D0C00D9
:100F6000290000F0EAFA03000120002B11D02878B4
:100F700010280FD005D8002809D0094B0120236084
:100F800007E020280AD03028F7D1064B03E0064BB3
:100F900023603EBD054B23600020FAE7044BFAE7CF
:100FA000000080BF1F853B4148E17A3F9A99F93F95
:100FB0009A997940F7B56B469F1D0D0039000400E2
:100FC00000F061FA002801D10120FEBD6B46DE1D54
:100FD0003100200000F08BFA0028F5D03B78002B80
:100FE00007D13378002B0ED129002000FFF758FFDE
:100FF000EBE7082BE8D13378002BE5D1290020005E
:10100000FFF77CFFE1E7082BDED129002000FFF786
:10101000A3FFDAE770B50C1CFE2105008905201C32
:101020000CF01EF81021002823D11549201C0CF0CB
:1010300017F8202100281CD11249201C0CF010F8B0
:101040003021002815D11049201C0CF009F840214E
:1010500000280ED10D49201C0CF002F85021002868
:1010600007D10B49201C0BF0FBFF6021002800D1A9
:101070001031280000F015FA4342584170BDC046B7
:10108000000020410000C841000048420000C84262
:101090000000484310B5437A04000020012B08D01B
:1010A000E1682000FFF7B6FF012802D001230020ED
:1010B000637210BD70B50C1CFE2105008905201C53
:1010C0000BF0CEFF002821D11749201C0BF0C8FFE0
:1010D00000281ED11549201C0BF0C2FF00281AD190
:1010E0001349201C0BF0BCFF002816D11149201C0D
:1010F0000BF0B6FF002812D10F49201C0BF0B0FFF7
:1011000000280ED10D4BEB60002070BDFE239B0527
:10111000F9E7054BF7E7054BF5E7054BF3E7054B1B
:10112000F1E7054BEFE7C046000020410000C84151
:10113000000048420000C842000048430000C84385
:1011400010B5437A012B05D1FFF764FF0138434204
:10115000584110BDFFF7AEFFF8E7F0B58C46466882
:10116000077A8BB011001C0002201F2B11D8092018
:10117000634602AD220068442B7006F01BFC00227F
:10118000631C009239002A00300006F00FF8431E5D
:1011900098414042C0B20BB0F0BDF0B516000F222E
:1011A0001F000123057A85B044686A44117020004D
:1011B0000093290005F0FAFF00280CD100903B00B5
:1011C00032002900200006F013F8431E98414042E7
:1011D000C0B205B0F0BD0120F9E713B503680C00FB
:1011E0005B6969469847012824D06B460020185E49
:1011F0000CF014FFFF2189050CF034FC0CF0EEFE1E
:101200006B4620600220185E0CF008FFFF21890564
:101210000CF028FC0CF0E2FE6B4660600420185EC7
:101220000CF0FCFEFF2189050CF01CFC0CF0D6FE36
:10123000A060002016BD704710B50123002903D01F
:1012400000F074FA43424341180010BD37B5050061
:1012500006220C006846002106F0EEFB69462800D5
:1012600000F0CDFA0123002809D06B461B882380AB
:101270006B465B8863806B469B88A38000231800C5
:101280003EBD10B5040003F037FE200010BD000085
:10129000034B4160083303603C2303727047C04630
:1012A0005C0C010810B5002100F049FA4342584196
:1012B00010BD000070B50C1C05000E49201C0BF081
:1012C000CFFE002188420ED10B49201C0BF0C8FE36
:1012D0000421002807D10949201C0BF0C1FE082178
:1012E000002800D10431280000F041FA434258415F
:1012F00070BDC046000020410000A04100004842EF
:1013000010B50221040000F01AFA002801D10120D2
:1013100010BD1021200000F05AFA0028F7D006492D
:101320002000FFF7C7FF0128F1D00021200000F0C6
:1013300036FA43425841EBE70000C842F0B58C460C
:101340004668077A8BB011001C0002201F2B11D8B1
:101350000920634602AD220068442B7006F02AFB88
:101360000022631C009239002A00300005F01EFFA5
:10137000431E98414042C0B20BB0F0BDF0B516001C
:101380000F221F000123057A85B044686A4411705A
:1013900020000093290005F009FF00280CD10090DF
:1013A0003B0032002900200005F022FF431E984137
:1013B0004042C0B205B0F0BD0120F9E710B50123ED
:1013C000FFF7EBFE43425841C0B210BD07B5130012
:1013D0006A46073213700123FFF7BFFE43425841AC
:1013E000C0B20EBD10B50A000F21FFF7E7FF431E84
:1013F0009841C0B210BD73B56B46DC1D0E002200D3
:1014000020210500FFF7DAFF00280BD00123227806
:1014100020219A43324328002270FFF7D7FF431E52
:101420009841C0B276BD73B56B46DC1D0E0022003C
:1014300020210500FFF7C2FF00280BD002232278ED
:1014400020219A43324328002270FFF7BFFF431E3A
:101450009841C0B276BD73B56B46DC1D0E0022000C
:1014600020210500FFF7AAFF00280BD004232278D3
:1014700020219A43324328002270FFF7A7FF431E22
:101480009841C0B276BD10B50A000C002021FFF7CC
:1014900095FF002804D008220120237813402370F0
:1014A00010BD73B56B46DC1D0E0022002021050027
:1014B000FFF784FF00280BD00F23227820211A4049
:1014C000324328002270FFF781FF431E9841C0B2CB
:1014D00076BD10B50A000C002021FFF76FFF002831
:1014E00004D00F22012023789343237010BD10B540
:1014F0000A000C002321FFF761FF002804D0082216
:10150000012023781340237010BD73B56B46DC1D9A
:101510000E00220023210500FFF750FF00280BD00A
:101520003023227823219A43324328002270FFF788
:101530004DFF431E9841C0B276BD10B50A000C00A5
:101540002321FFF73BFF002804D03022012023781D
:101550001340237010BD73B56B46DC1D0E002200D6
:1015600023210500FFF72AFF00280BD07F232278D4
:1015700023211A40324328002270FFF727FF431E21
:101580009841C0B276BD73B56B46DC1D0E002200DB
:101590002E210500FFF712FF00280BD03F232278F1
:1015A0002E211A40324328002270FFF70FFF431EFE
:1015B0009841C0B276BD70B506000D0028242A00FF
:1015C00021003000FFF7FAFE002807D0611C6A1CDA
:1015D000C9B23000FFF7F2FE002800D170BD02341E
:1015E000E4B202352E2CEAD10120F7E7F0B587B03E
:1015F00002AB9F1D019139000500FFF778FF00281D
:1016000002D1002007B0F0BD02AB5C1D2100280014
:10161000FFF739FF0028F4D02478082C05D13B7857
:10162000002BEED10094022408E0002CE9D13B7895
:10163000002B60D0082BE4D1043B009302ABDF1DEC
:1016400039002800FFF779FF0028DAD03B7802271D
:10165000202B05D00137302B02D0103B5F425F4179
:1016600004A92800FFF7A7FF0028CAD002AB082072
:10167000185E009BA4001841E719214CFF00E719F0
:101680003C687D68C11722002B00FA260BF04AFD4A
:101690000027FA22760092000023801979410BF08E
:1016A000FDFC019B2200186002AB0A20185E009B23
:1016B00018412B00C1170BF035FDFA2200239200D0
:1016C000801979410BF0EAFC019B2200586002ABC3
:1016D0000C20185E009B18412B00C1170BF022FD57
:1016E000FA2200238019794192000BF0D7FC019B6C
:1016F0009860012086E70623012400939EE7C046F8
:10170000800C010810B50123FFF738FE4342584111
:10171000C0B210BD07B513006A460732137001232B
:10172000FFF70CFE43425841C0B20EBD10B50A008F
:101730004F21FFF7E7FF431E9841C0B210BD73B5BC
:101740006B46DC1D0E00220060210500FFF7DAFF6A
:1017500000280BD00323227860219A4332432800CB
:101760002270FFF7D7FF431E9841C0B276BD73B514
:101770006B46DC1D0E00220060210500FFF7C2FF52
:1017800000280BD00C23227860219A433243280092
:101790002270FFF7BFFF431E9841C0B276BD73B5FC
:1017A0006B46DC1D0E00220062210500FFF7AAFF38
:1017B00000280BD00223227862219A43324328006A
:1017C0002270FFF7A7FF431E9841C0B276BD73B5E4
:1017D0006B46DC1D0E00220062210500FFF792FF20
:1017E00000280BD01023227862219A43324328002C
:1017F0002270FFF78FFF431E9841C0B276BD70B5CF
:1018000006000D0068242A0021003000FFF77AFF4F
:10181000002807D0611C6A1CC9B23000FFF772FFB4
:10182000002800D170BD0234E4B202356E2CEAD13A
:101830000120F7E77FB500230193036802AC0E0097
:101840005B69210005009847012802D1012004B0FE
:1018500070BD2B6801A99B69280098470128F5D025
:10186000019D0023E05E0CF0D9FB291C0CF0FAF876
:101870000CF0B4FB30600223E05E0CF0CFFB291CBF
:101880000CF0F0F80CF0AAFB70600423E05E0CF0A2
:10189000C5FB291C0CF0E6F80CF0A0FBB0600020A2
:1018A000D5E77FB500230193036802AC0E005B6BA4
:1018B000210005009847012802D1012004B070BD25
:1018C0002B6801A91B6B280098470128F5D0019DC2
:1018D0000023E05E0CF0A2FB291C0CF0C3F80CF016
:1018E0007DFB30600223E05E0CF098FB291C0CF0BD
:1018F000B9F80CF073FB70600423E05E0CF08EFB13
:10190000291C0CF0AFF80CF069FBB0600020D5E7A3
:1019100008B4024B9C46043808BC6047A318000872
:1019200010B50123002903D000F010FD43424341CC
:10193000180010BD08B4024B9C46043808BC604730
:101940002119000837B56B46DD1D0C00290000F099
:101950003DFD012300280ED028780C2813D80BF069
:10196000A5F907121212101212120C1212120E0006
:10197000074B2360002318003EBD064BF9E7064BDA
:10198000F7E7064BF5E7064B23600123F3E7C04674
:1019900023DB793D23DBF93D23DB793E23DBF93E75
:1019A000000080BF37B56B46DD1D0C00290000F03C
:1019B0000DFD012300280FD028780C2814D80BF037
:1019C00075F907131313111313130D1313130F00CA
:1019D0008023DB052360002318003EBD8123F8E748
:1019E0008223F6E78323F4E7014B23600123F3E727
:1019F000000080BFF7B56B46DE1D0C00310007000C
:101A000000F0C6FD002801D101200DE06B469D1DB0
:101A10002900380000F04BFD0028F5D03378022B68
:101A200003D10D4B00202360FEBD28780C2810D870
:101A30000BF03CF9070F0F0F090F0F0F0B0F0F0FD4
:101A40000D00064BEEE7064BECE7064BEAE7064BCC
:101A5000E8E7064B2360D7E70000FA420000754331
:101A60000000FA4300007A440000FA44000080BFFE
:101A700008B4024B9C46043808BC6047F5190008BE
:101A800037B5050006220C006846002105F0D4FF9A
:101A90006946280000F0A9FC0123002812D06B46FB
:101AA0005A781B7812029B1823806B46DA789B7851
:101AB00012029B1863806B465A791B7912029B189D
:101AC000A380002318003EBD37B5050006220C0098
:101AD0006846002105F0B0FF6946280000F0F6FCDA
:101AE0000123002812D06B465A781B7812029B18EB
:101AF00023806B46DA789B7812029B1863806B46D2
:101B00005A791B7912029B18A380002318003EBD4E
:101B100008B4024B9C46043808BC6047C91A000848
:101B200037B56B46DD1D0C00290000F096FC030064
:101B30000120002B25D0287850282BD010D8202821
:101B400024D007D800281AD010281BD0154B01200C
:101B5000236016E030281BD04028F7D1124B12E04A
:101B600080281BD005D8602816D07028EED10F4BE6
:101B700009E0902814D0A028E8D10D4B03E0002301
:101B800023603EBD0B4B23600020FAE70A4BFAE7C7
:101B90000A4BF8E70A4BF6E70A4BF4E70A4BF2E781
:101BA0000A4BF0E7000080BF0000D04200405044E4
:101BB0000020D045000050410000D04100005042BC
:101BC000000050430000D0430080CF440020504527
:101BD00037B56B46DD1D0C00290000F0AFFC03009B
:101BE0000120002B25D0287850282BD010D8202871
:101BF00024D007D800281AD010281BD0154B01205C
:101C0000236016E030281BD04028F7D1124B12E099
:101C100080281BD005D8602816D07028EED10F4B35
:101C200009E0902814D0A028E8D10D4B03E0002350
:101C300023603EBD0B4B23600020FAE70A4BFAE716
:101C40000A4BF8E70A4BF6E70A4BF4E70A4BF2E7D0
:101C50000A4BF0E7000080BF0000D0420040504433
:101C60000020D045000050410000D041000050420B
:101C7000000050430000D0430080CF440020504576
:101C800008B4024B9C46043808BC6047D11B0008CE
:101C900070B50C1C80210500C905201C0BF0E0F973
:101CA0000021884210D18121201CC9050BF0D8F9F0
:101CB0000821002808D18221201CC9050BF0D0F989
:101CC0000C21002800D10839280000F064FB4342B1
:101CD000584170BD10B50421040000F083FC0028B9
:101CE00001D1012010BD4021200000F039FB002867
:101CF000F7D00021200000F05AFC0028F1D000218C
:101D0000200000F08FFB0028EBD080212368C9055C
:101D10009B6A200098470128E3D00021200000F0B2
:101D2000F2FB0028DDD0236808495B6C200098474F
:101D30000128D6D022000020054BA0321360033AC0
:101D40001070A4340B3213602070CBE70000FA440B
:101D50000000D04208B4024B9C46043808BC6047DF
:101D6000D51C0008F7B56B469E1D0D00310007001D
:101D700000F00EFC0124002805D03378022B04D19A
:101D8000124B00242B602000FEBD6B46DE1D31008F
:101D9000380000F08CFB0028F5D030780C2810D8E3
:101DA0000AF084FF070F0F0F090F0F0F0B0F0F0F14
:101DB0000D00074BE5E7074BE3E7074BE1E7074B70
:101DC000DFE7074B01242B60DDE7C04600008C40B5
:101DD00000000C4100008C4100000C4200008C42CD
:101DE000000080BF08B4024B9C46043808BC604722
:101DF000651D000870B50D1C06001749281C0BF066
:101E00002FF9041E07D00221300000F0A6FB434248
:101E10004341180070BD1149281C0BF021F900281E
:101E20000ED10F49281C0BF01BF90424002807D100
:101E30000C49281C0BF014F92419002800D1043493
:101E40000021300000F089FB01230028E1D02100AF
:101E5000300000F011FBDAE70000FA4200007543A1
:101E60000000FA4300007A4408B4024B9C46043850
:101E700008BC6047F51D000870B51D000B4B040041
:101E8000180008302060200058336360A1600C30D7
:101E9000110005F01BFA20002900543005F016FA55
:101EA0002300D6229C3320001A7070BDE00C01087C
:101EB00070B50C1C05002349201C0BF0D1F8102133
:101EC000002838D12049201C0BF0CAF82021002816
:101ED00031D11E49201C0BF0C3F8302100282AD133
:101EE0001B49201C0BF0BCF84021002823D11949C4
:101EF000201C0BF0B5F8502100281CD11649201CDD
:101F00000BF0AEF86021002815D11449201C0BF00D
:101F1000A7F8702100280ED11149201C0BF0A0F861
:101F20008021002807D10F49201C0BF099F890213F
:101F3000002800D11031280000F074FA43425841C3
:101F400070BDC046000050410000D041000050422A
:101F50000000D042000050430000D04300405044F5
:101F60000080CF440020504510B504009D342278F5
:101F70000023012A0AD00300A0331968FFF798FF55
:101F80000300012802D0012323700023180010BD94
:101F900070B50C1C05002649201C0BF061F80028C8
:101FA00034D12449201C0BF05BF8002830D12249A1
:101FB000201C0BF055F800282CD12049201C0BF0D8
:101FC0004FF8002828D11E49201C0BF049F80028A2
:101FD00024D11C49201C0BF043F8002820D11A49B9
:101FE000201C0BF03DF800281CD11849201C0BF0D8
:101FF00037F8002818D11649201C0BF031F80028BA
:1020000014D1144BA0352B60002070BD084BF9E7AC
:10201000084BF7E7084BF5E7084BF3E7084BF1E708
:10202000084BEFE7084BEDE7084BEBE7084BE9E718
:10203000000050410000D041000050420000D0425A
:10204000000050430000D043004050440080CF4483
:10205000002050450020D045030010B59D331B786B
:10206000012B05D1FFF724FF01384342584110BD31
:10207000FFF78EFFF8E7000070B50C1C0500234940
:10208000201C0AF0EDFF1021002838D12049201C27
:102090000AF0E6FF2021002831D11E49201C0AF059
:1020A000DFFF302100282AD11B49201C0AF0D8FF6D
:1020B0004021002823D11949201C0AF0D1FF5021CA
:1020C00000281CD11649201C0AF0CAFF60210028F4
:1020D00015D11449201C0AF0C3FF702100280ED12D
:1020E0001149201C0AF0BCFF8021002807D10F49AC
:1020F000201C0AF0B5FF9021002800D110312800E3
:1021000000F001FA4342584170BDC0460000504102
:102110000000D041000050420000D0420000504377
:102120000000D043004050440080CF440020504580
:1021300010B50400A43422780023012A0AD0030039
:10214000A8331968FFF798FF0300012802D0012384
:1021500023700023180010BD70B50C1C0500264923
:10216000201C0AF07DFF002834D12449201C0AF0ED
:1021700077FF002830D12249201C0AF071FF002887
:102180002CD12049201C0AF06BFF002828D11E49C1
:10219000201C0AF065FF002824D11C49201C0AF0ED
:1021A0005FFF002820D11A49201C0AF059FF00289F
:1021B0001CD11849201C0AF053FF002818D11649D9
:1021C000201C0AF04DFF002814D1144BA8352B60B9
:1021D000002070BD084BF9E7084BF7E7084BF5E71F
:1021E000084BF3E7084BF1E7084BEFE7084BEDE747
:1021F000084BEBE7084BE9E7000050410000D041F5
:10220000000050420000D042000050430000D04384
:10221000004050440080CF44002050450020D0456D
:10222000030010B5A4331B78012B05D1FFF724FF61
:1022300001384342584110BDFFF78EFFF8E7000018
:1022400008B4024B9C46043808BC604721220008B1
:10225000F0B586689C308C4607788BB011001C0066
:1022600002201F2B11D80920634602AD22006844CA
:102270002B7005F09FFB0022631C009239002A009E
:10228000300004F093FF431E98414042C0B20BB0AF
:10229000F0BDF0B515000F221E00012384689C30AC
:1022A000077885B06A44117020000093390004F06B
:1022B0007DFF00280CD1009033002A003900200057
:1022C00004F096FF431E98414042C0B205B0F0BDF5
:1022D0000120F9E7084B10B51A0004000832583302
:1022E00002604360543004F0C1FF20000C3004F061
:1022F000BDFF200010BDC046E00C010808B4024B31
:102300009C46043808BC6047D522000810B504007C
:10231000FFF7E0FF200002F0EFFD200010BD08B441
:10232000024B9C46043808BC6047C0460D23000899
:1023300010B5FFF7AEFF43425841C0B210BD10B513
:10234000FFF786FF43425841C0B210BD10B50A00E6
:1023500001230F21FFF7ECFF431E9841C0B210BDCF
:1023600073B56B46DC1D0D0001232200122106000F
:10237000FFF7DEFF00280DD040222378122193437F
:102380001D432200012330002570FFF7D8FF431EB4
:102390009841C0B276BD73B56B46DC1D0D000123BC
:1023A000220010210600FFF7C3FF00280DD00C22E9
:1023B0002378102193431D43220001233000257010
:1023C000FFF7BDFF431E9841C0B276BD10B50A00AD
:1023D0000C0001231021FFF7ABFF002804D00C22D2
:1023E000012023781340237010BDF7B506000F00BD
:1023F00003250024A31CDBB20193210028313A19E4
:10240000C9B201233000FFF793FF002809D001343F
:10241000019BE4B2A342F0D1013DEDB2002DE9D120
:102420000120FEBD73B56B46DC1D0D0001232200AB
:1024300010210600FFF77CFF00280DD00F22237823
:10244000102113401D432200012330002570FFF7A7
:1024500076FF431E9841C0B276BD10B50A000C004D
:1024600001231021FFF764FF002804D00F22012070
:1024700023789343237010BD73B56B46DC1D0D00AC
:102480000123220011210600FFF752FF00280DD082
:102490000C222378112193431D4322000123300095
:1024A0002570FFF74CFF431E9841C0B276BD10B5B2
:1024B0000A000C0001231121FFF73AFF002804D085
:1024C0000C22012023781340237010BDF7B50600BD
:1024D0000F0003250024A31CDBB20193210022314D
:1024E0003A19C9B201233000FFF722FF002809D0B2
:1024F0000134019BE4B2A342F0D1013DEDB2002DC5
:10250000E9D10120FEBD73B56B46DC1D0D00012332
:10251000220011210600FFF70BFF00280DD00F222B
:102520002378112113401D43220001233000257020
:10253000FFF705FF431E9841C0B276BD10B50A00F3
:102540000C0001231121FFF7F3FE002804D00F2215
:10255000012023789343237010BD73B56B46DC1DB7
:102560000D000123220011210600FFF7E1FE0028E3
:102570000DD002222378112193431D432200012311
:1025800030002570FFF7DBFE431E9841C0B276BDD8
:1025900010B50A000C0001231121FFF7C9FE002825
:1025A00004D00222012023781340237010BD73B59C
:1025B0006B46DC1D0D00012322000A210600FFF7F7
:1025C000B7FE00280DD0072223780A2193431D432C
:1025D0002200012330002570FFF7B1FE431E984111
:1025E000C0B276BD73B56B46DC1D0D000123220021
:1025F00012210600FFF79CFE00280DD0042223784C
:10260000122193431D432200012330002570FFF760
:1026100096FE431E9841C0B276BD000010B504007E
:10262000044B08C02369002B01D09B689847200009
:1026300010BDC0468016010810B50400024B0360AF
:10264000FFF7ECFF200010BD6C0D010810B5040071
:10265000FFF7F2FF200002F04FFC200010BD10B584
:102660000400FFF7DBFF200002F046FC200010BD55
:10267000F8B504000160102016001F0002F030FCC5
:1026800005002168FDF702FE65600C2002F028FCC1
:1026900005002168FEF7FCFDA560102002F020FC7B
:1026A00005002168FEF7F2FBE560142002F018FC3B
:1026B00005002168FEF7C0F82561AC2002F010FC8F
:1026C000050032003B002168FFF7D6FB60686561BA
:1026D000036800211B689847A068002103681B68F5
:1026E0009847E068002103681B689847206900212B
:1026F00003681B6898476069002103681B68984756
:102700002000F8BDF7B5104D01932B6800900F0025
:102710001600002B15D1D82002F0E2FB04003A008D
:10272000009904F0E9FC094B2360002C09D0182023
:1027300002F0D6FB0700019B32002100FFF798FF53
:102740002F602868FEBDC046BC0A00206C0D010841
:10275000F8B519000400100016001F000DF0EEF986
:1027600005000DF01FFA02000B00300039000CF0DC
:10277000AFFE0D4B00220CF02BFC0DF0DFF92A0010
:102780000A490600200005F0B3F9200005F020FA00
:102790002018092E02DC3023037001303200044976
:1027A00005F0A6F92000F8BD000059407C0D010895
:1027B000800D0108F0B5634D97B02868FDF772FDF4
:1027C000614F3868FEF7B2F8604B1868FEF76AFD93
:1027D0005F4B1868FEF75EFC5E4E3068FFF7C4FB87
:1027E0003068FFF7A5FC5C4805F070F96B46286877
:1027F000DC1C036821005B6898472178574805F086
:1028000065F93868210003685B6898472178544867
:1028100005F05CF94D4B2100186803685B68984728
:102820002178504805F052F9494B21001868036897
:102830005B68984721784C4805F048F930682100DA
:1028400003685B6898472178484805F03FF9484895
:1028500005F03CF9286801A903685B699847286876
:1028600002A903681B69984701980DF015FA020048
:102870000B0006A8FFF76CFF040002980DF00CFA9D
:102880000B0002000EA8FFF763FF21000200394889
:1028900005F01CF92C4C01A9206803685B69984776
:1028A000206802A903681B69984701980DF0F4F9A4
:1028B00002000B0006A8FFF74BFF040002980DF082
:1028C000EBF90B0002000EA8FFF742FF2100020007
:1028D000294805F0FBF8294805F0F8F81B4B03A937
:1028E000186803681B699847049A059B0399244854
:1028F00005F0ECF8164B03A9186803681B699847A4
:10290000049A059B03991F4805F0E0F8114C03A9B0
:10291000206803681B699847049A059B03991A4825
:1029200005F0D4F8206803A90368DB6A9847059B83
:10293000049A0399154805F0C9F8FF20800504F0B2
:1029400023FE84E7D00A0020C00A0020C40A002029
:10295000C80A0020CC0A0020830D0108A00D010840
:10296000CB0D0108F60D0108210E01084C0E0108DF
:10297000990E0108770E01089C0E01089A0D0108B6
:10298000C50E0108F10E0108190F0108430F0108D7
:1029900010B51423152218211920FFF7B3FE084B98
:1029A00082681A60074B42681A60074B02691A6016
:1029B000064B42691A60C268054B1A6010BDC046DA
:1029C000C40A0020D00A0020C00A0020CC0A00203F
:1029D000C80A0020C36810B50400002B01D09B6812
:1029E0009847200010BD0000034B10B51B68002B5A
:1029F00000D0984710BDC046D40A002070470000A0
:102A000010B5024B1B689847FBE7C046C00000208A
:102A1000F7B5836A01919B0802D1214B1B889B0863
:102A2000066B9C003419620700D5043C8027221FE6
:102A30007F0417602700019A2500083F3A600022B2
:102A4000403D29009446624604C18F42FBD12200DA
:102A5000C769203A1760019AC5624263C278022AA8
:102A600019D0104A32600E4A12680192D20012D573
:102A7000112B10D9103B5B08DB005B421A00383A7F
:102A8000A4182A000849A24206D1EB1804339E423A
:102A900001D2054A1A60F7BD083A51601160F2E7A9
:102AA000C40F0108A52E5AE2CCCCCCCCC36A196263
:102AB0007047C36A19625A627047000010B50C482B
:102AC00000F0AAFA02000B4B0B481A6000F0A4FABF
:102AD00002000A4B0A481A6000F09EFA094B18607F
:102AE00004F0E8FE0021002002F0B2F910BDC0465B
:102AF000BC0F0108B4140020B80F0108E00A002040
:102B0000B40F0108D80A002010B5FFF779FF10BDF7
:102B100010B5040000F0FEF921000200014804F0A5
:102B20001DFD10BD7C0F010810B5FFF75DFF10BD46
:102B3000034A0449044B891AD9601A617047C04698
:102B4000F81A0020007E0020C400002000F04AFB9C
:102B5000FFF7EEFF0348002100F0F0FA00F052F911
:102B6000FEE70000C4000020012110B5024B4942DD
:102B7000186800F073FA10BDE00A002010B5024B8F
:102B8000186800F095FA10BDE00A002080F309886B
:102B90007047EFF309807047684680F309884A4818
:102BA0000078C00703D1032080F314887047022007
:102BB00080F314887047454B9C46EFF305831B0652
:102BC00005D1EFF31483DB0701D000DF70476047C6
:102BD0003F4B9C46EFF305831B0605D1EFF31483AF
:102BE000DB0701D000DF70476047EFF309808169A0
:102BF0000239097800292BD1A6461FC8A44674467D
:102C0000E047EFF3098307C3324B06CB91421CD058
:102C1000083B00290DD0EFF309802038C862F0C0CE
:102C200044464D4656465F46F0C00CB400F0B2FF35
:102C30000CBC1A60D06A1030F0C8A046A946B24653
:102C4000BB4680F309882038F0C80220C043004703
:102C500010B5214A1268914209D8204C8900645865
:102C6000A6461FC8A446F047EFF309840FC410BD61
:102C700000F014FF174B06CB91421AD0083BEFF33C
:102C800009802038C862F0C044464D4656465F462B
:102C9000F0C00CB400F07EFF0CBC1A60D06A10309B
:102CA000F0C8A046A946B246BB4680F30988203842
:102CB000F0C80220C043004700F04EFFDAE700F002
:102CC00049FF00F049FFD5E7A60F01084338000887
:102CD00061380008F419002000000000FCFFFFFF2D
:102CE000002230B50B4C2368002B0AD103608160B1
:102CF000002B02D09D68691A9960002A08D01060E4
:102D000030BD9D68A942F1D31A00491B1B68EBE74F
:102D10002060F5E7B0190020002313B502009842A7
:102D200015D0431C15D00C4C0C49230088420ED8FA
:102D3000FA200B4B800050431B680193013BC018E5
:102D4000019909F0BDFF2300A04200D883B218000A
:102D500016BD044BFBE7C046FEFF000000093D0026
:102D6000780F0108FFFF0000002806D0830705D177
:102D700003785A4253415B42184070470020FCE7F9
:102D8000B0B50F4D00AF2878002815D10D4C236841
:102D90000533D97F00F074FF2368DA78FF2A03D166
:102DA000DA6A203282F309886268002A00D10CC4F2
:102DB00001F01AF901232B70BD460020B0BDC046BA
:102DC000AD190020F4190020014B18787047C04657
:102DD000AD19002090B5EFF31084002C07D1EFF36C
:102DE0000584002C03D1EFF31484E40702D4034BD1
:102DF000187890BD024FBC4600DFFAE7AD190020FD
:102E0000C92D0008F0B589B000AFEFF3108382251B
:102E1000002B3AD1EFF30583002B36D1FFF7DAFF11
:102E2000002807D11B4C2468002C03D06468002CB8
:102E300000D0A047EFF3148403263440022C18D0AE
:102E4000B4421DD0FF25012C1FD020243C1984F34F
:102E50000988114C2478E4070FD5022484F31488E0
:102E6000BFF34F8FBFF36F8F0C4FBC4600DF0500E1
:102E70000BE0094C2478E407F6D486F31488EFE7D6
:102E8000054CFF252478E407EED52800BD4609B09F
:102E9000F0BDC046E4190020A60F0108812D0008EE
:102EA00070B50B001500002802D10024200070BD71
:102EB0000668002EF9D00422845EE21C92B2062A33
:102EC000F3D80022C168914200D00269043409029B
:102ED0002143300000F014FF0028E6D00A4B0138EF
:102EE0008000C458094AE36A5A63094B1B68002BE7
:102EF00007D09B68002B04D0E07829009847E06356
:102F0000D4E7E563D2E7C046101400208130000802
:102F1000E419002010B500F0ABFE031E03D0013809
:102F2000024B8000C358180010BDC046101400208A
:102F300010B5FFF719FF8023041E0FD0084B1B6844
:102F4000002B04D0DB68002B01D0C06B9847E078E1
:102F500000F028FF8123FF2800D00023180010BDB7
:102F6000E4190020830706D1002807D043690169CE
:102F70001B681800704700231900FAE70300FBE7FD
:102F800090B504000800034FBC4600DF206061607C
:102F9000200090BD652F000810B5031E0AD00468FC
:102FA000231E07D0002322789A4203D1200000F08C
:102FB00069FC2300180010BD70B5032405000E0045
:102FC00004408023002C12D1002810D00278032A5C
:102FD0000DD10800FFF7A0FE0100280000F0CEFC94
:102FE0002300012803D1C133002E00D1403B18003B
:102FF00070BD10B50324802304400AD1002808D0F6
:103000000278032A05D100F045FC8123FF2800D077
:103010002300180010BD0000F8B50500EFF310867E
:10302000002086420FD1EFF305843000002C0AD136
:10303000EFF31480C00707D406480078002803D1B6
:103040002800FFF7A9FFF8BD2800034FBC4600DFAA
:10305000F9E7C046AD190020992F0008B0B505006A
:10306000EFF310848220002C07D1EFF30584002CAD
:1030700003D12800014FBC4600DFB0BDB92F0008C6
:1030800001210848B0B549420068FFF7E7FF064F45
:10309000BC4600DF0400FFF747FD2000034FBC469D
:1030A00000DFFEE7A8190020152F0008312F0008C7
:1030B000B0B50500EFF310848220002C07D1EFF3A8
:1030C0000584002C03D12800014FBC4600DFB0BDB1
:1030D000F32F0008F7B5060000910192EFF310827C
:1030E0000024A24210D1EFF305831400002B0BD172
:1030F000EFF31483DB0709D40D4B1B78002B05D1AC
:10310000019AFFF7CDFE04002000FEBD0121094D0C
:1031100049422868FFF7A2FF30000099019A064F44
:10312000BC4600DF04002868FFF7C2FFECE7C0469A
:10313000AD190020A8190020A12E000810B500220A
:10314000FFF7C8FF10BD10B50300041E0FD00168C3
:103150000B1E0CD04068031E09D0002302789A424F
:1031600005D10431890089B200F038FA636818008B
:1031700010BD000070B5124D2B78002B01D100F06E
:10318000B7FEFF220F4B2C781B689A70002C11D1D0
:1031900021000D48FFF7D7FF0C4B220018602100DB
:1031A0000B48FFF77DFE0B4B18600B48FFF734FF11
:1031B0000A4B1860012300202B70094B187070BD5A
:1031C000AC190020F4190020AC0F0108B014002045
:1031D000C80F0108A4190020E00F0108A819002059
:1031E000AD190020B0B5EFF310858224002D0AD16F
:1031F000EFF30585002D06D1EFF31484E40704D422
:10320000FFF7B8FF04002000B0BD024FBC4600DF4E
:10321000F8E700007531000830B5040085B00D00F6
:10322000002817D00378012B14D10800FFF774FD94
:1032300002A90200200000F0DFF9012808D12800CF
:10324000451EA841800102990022130005B030BD3F
:103250001020F8E780200021F6E770B580230400F5
:103260000E00150000280ED0002A0CD10278012A89
:1032700009D100F01BFA8123002804D0310020007E
:1032800000F018FA2B00180070BD0000F8B5124EBF
:103290003468002C06D00127A368013BA360A26814
:1032A000002A00D0F8BD0D4B256821001868356054
:1032B000FFF7D3FF002802D00420FFF729FC637931
:1032C000012B07D1E1682000FFF70AFD002DE9D0AE
:1032D0002C00E4E72771F9E7B0190020B0140020B2
:1032E0007FB504001600081E01D0002A04D08023F8
:1032F0002360200004B070BD0B78012BF7D102A928
:1033000001AD00F0DDF9042804D00196230007CDBB
:1033100007C3EEE710230193F8E70000B0B50400FF
:103320001500EFF31080002803D1EFF3058000288B
:1033300005D02A002000FFF7D3FF2000B0BD080011
:103340001100034FBC4600DF20606160A260F4E71B
:103350001932000810B5012486B06442094B2200DE
:10336000196803A8FFF7DAFF039B102BF6D1049925
:1033700001A8FFF705FE019B002BEFD002989847AC
:10338000ECE7C046B014002010B5038B4278194317
:1033900004000183438B062A14D11A000A40934289
:1033A0000FD199432183200000F0DCF8012308218C
:1033B00020006370628BFFF77CFB2100054800F062
:1033C0000BF810BD052AFCD11A000A40F9D042833F
:1033D000E7E7C046B4190020027830B5013A8C788E
:1033E0004368D2B2002B02D09D78A54208D24B6030
:1033F0004160022A07D8002B00D09960886030BD58
:1034000018005B68EEE700238B60F8E7436810B5AF
:1034100004785968013C41600022022C06D8914290
:1034200001D088605A609A60180010BD5A60FBE7AE
:10343000034B5A6842600022586082607047C04661
:10344000B4190020124A10B5D368002B13D0938A08
:10345000D4688B420DD3C460D060C4680261002C74
:1034600000D020615B1A9BB28382918ACB1A93822F
:1034700008E0002C07D10024CB1AC460D0600261A0
:103480009382848210BDA28A9B182200E0E7C04686
:10349000CC19002070B5194DEB68002B09D001261E
:1034A000AB8A013BAB82AA8A002A02D1EC68002CCD
:1034B00000D170BDA368002B08D0616859606168B5
:1034C000002901D08B6062600023A36021000C48BA
:1034D000FFF782FFA38AAB826378042B04D1094BE8
:1034E000E28A1B689B18A3820022E3686670EB6087
:1034F000934201D01D61E2602261D4E7CC19002023
:10350000B41900203C1A00208368002B06D04268C2
:103510005A604268002A00D093607047044B5A6892
:10352000904202D142685A60F7E7131EF7D1F4E7E0
:10353000B419002070B584680500002C05D14378CB
:10354000012B0CD1064C03E0A4682378002BFBD0A0
:103550002800FFF7D9FF29002000FFF73DFF70BDCD
:10356000B4190020036910B5002B0DD0C268DA60D1
:10357000C268002A09D0998A848A0919998213613C
:103580000023C3600023036110BD9A82FAE70000A4
:1035900070B5114AD478EFF31086EFF3108372B64A
:1035A00093789C4211D90133937013785D1CAC421F
:1035B00000D100251570002E00D162B69C4206D9BC
:1035C000DB00D3185860996070BD002EF5D0022042
:1035D000FFF79EFAF8E7C0462C1400200123037081
:1035E000002310398908437083704360038143814D
:1035F0008381C1817047000070B515008289040085
:10360000002A3AD04389181D800000590133086010
:10361000E1899BB26381994201D100236381636890
:10362000002B1ED06378022B1BD12000FFF7EEFE8B
:1036300005000021FFF73AFA2389E9691A1D920073
:1036400011510133E2899BB223819A4201D10023B7
:1036500023812800FFF786FF280000F0CFFA002022
:1036600070BDEFF31083EFF3108172B60020013AC2
:10367000A2818342F4D162B6F2E70120002DEFD09F
:103680006268094B002A09D019682000FFF7A4FEE0
:103690002800082100F0D2FA0120E1E71B686360EE
:1036A0005A609C606070F3E7F4190020C389808938
:1036B000181A704710B5FFF76BFF00F0DBF910BD6B
:1036C00010B5040083890020834222D0638904332B
:1036D0009B001B590B606378022B05D10100200071
:1036E000FFF756FF00F0C6F9EFF31083EFF31082F7
:1036F00072B6A289013AA281002B00D162B6638919
:10370000E28901339BB2638104209A4201D10023F4
:10371000638110BD436870B504000D00002B4AD0D2
:103720004678022E1FD0032E0AD0012E42D1FFF779
:103730006DFE04002A001021FFF7BBF966700DE052
:10374000080000F07EF8051E34D02000FFF75EFE72
:1037500029000400FFF7AAF9012363702000FFF796
:1037600001FF210023E0FFF751FE05000021FFF7D4
:103770009DF92389E9691A1D92001151EFF3108216
:10378000EFF3108172B6A1890131A181002A00D125
:1037900062B60133E2899BB223819A4201D10023B0
:1037A0002381012328006B70FFF7DCFE29001148FC
:1037B000FFF712FE70BD8289C089824215D223892B
:1037C000191D89000D51EFF31081EFF3108572B6CA
:1037D0000132A281002900D162B601339BB2984226
:1037E00001D02381E6E70023FBE70320FFF790F9F0
:1037F000E0E7C046B419002030B50300002A18DA0B
:103800000720102452005208073282430120002A68
:1038100016D015198D4213D859181C1950425960E9
:103820001C609A600918A318994207D31B501C000A
:10383000F9E70320033282430C24E7E700202060ED
:1038400030BDEFF3108272B601231A400368002BDB
:1038500001D019680160002A00D162B618007047D3
:103860000300012099420CD35A68914209D2EFF328
:10387000108272B61868086019600020D30700D45F
:1038800062B6704703230370002343804360836064
:10389000C3607047F7B543880500FF20002B0BD0AD
:1038A000344AA96812680192914205D1013B9BB24A
:1038B0006B80002B01D00020FEBD0B6A9D4235D1EC
:1038C000EB680B624B1DDB7F0C6A002C36D18B70D2
:1038D0006A68294F002A3CD02800FFF797FD0600B0
:1038E0002100FFF7E3F83000FFF73CFE01236B8077
:1038F000336AAE60EB601F4B356219687B688A786B
:103900009B7830009A420DD23800FFF765FD3800F1
:103910003100FFF761FD0122164B20001B685A7031
:103920000123737000F06AF9C5E71300002BC9D0BA
:10393000DA689542F9D1EA68DA60C3E76268002A7A
:1039400005D09078021C984200D21A1CD3B2E468C9
:10395000BBE77A6892789A42ADD93800FFF73CFD10
:103960000122044B20001B685A7000F047F9200028
:10397000A2E7C046F4190020B419002070B54288AF
:1039800004000E00164D002A08D12B68196A8360C6
:10399000C160186200200132628070BD83682968AE
:1039A0008B42F7D00120002EF7D08A789978914287
:1039B00003D29A701800FFF7BDFD6268002A09D093
:1039C00029682000FFF708FD3000092100F036F9D2
:1039D0000120E2E72B6863605A609C60F4E7C04610
:1039E000F41900200022034B1A60034A1268DA809F
:1039F0007047C046E8190020C00F010810B50D4BF4
:103A00000D4C186862680D49904205D01A60DA883A
:103A10000868013A82189A8098880A88904208D1EA
:103A2000002220001A60FFF7F1FC01002000FFF7E0
:103A3000D3FC10BDE8190020B41900203C1A002066
:103A4000436810B5002B0ED0FFF7E0FC0400FFF731
:103A500089FD012120006170FFF728F8210004484A
:103A6000FFF7BAFC10BD438801334380FAE7C04634
:103A7000B4190020064B1B78002B04D18022054B83
:103A800052051A6070470122034B1A70FAE7C046CC
:103A9000440B002004ED00E0450B00201B4B70B5EB
:103AA000186801234370FFF7C3FC194C6578A378AD
:103AB000002B06D165701748FFF7A8FC00F080F8CE
:103AC00070BDEB00E31858680278002A14D1996899
:103AD00089B2FFF759FCE37801359D4200D10025FA
:103AE000EFF31083EFF3108272B6A278013AA2705E
:103AF000002BDCD162B6DAE7012A03D19968FFF71F
:103B000009FEE8E7FFF79CFFE5E7C046F41900204F
:103B10002C140020B4190020094B01201A68094B0D
:103B200040421A600022084B1A60084B07321A60A4
:103B3000FF23074A1B0611680B4313607047C046FA
:103B4000DC0F010814E000E018E000E010E000E005
:103B500020ED00E0704700000B4B10B51868012302
:103B60004370FFF765FCFFF749FF084A136801330C
:103B70001360FFF78FFCFFF789FB0548FFF746FC52
:103B800000F01EF810BDC046F41900203C1A0020B9
:103B9000B419002010B5084B1B68DA78022A0AD045
:103BA0001A6BDB6A9A4203D8044B12689A4202D01D
:103BB0000120FEF7ADFF10BDF4190020A52E5AE23A
:103BC000074B10B5586002234370064B1B68002B4F
:103BD00004D01B69002B01D0C06B984710BDC046B4
:103BE000F4190020E419002010B50348FFF70EFC7B
:103BF000FFF7E6FF10BDC046B419002070B5041EE3
:103C000002D1FFF7F1FF70BD0A4EA278306801259E
:103C100083789A4207D9FFF70BFC336820005D7068
:103C2000FFF7CEFFEFE7657021000348FFF7D4FBF5
:103C3000E9E7C046F4190020B419002070B50D0062
:103C400000280ED0074B084C984203D00100206892
:103C5000FFF7F8FB236805485D70FFF7D7FBFFF718
:103C6000AFFF70BDFFFF0000F4190020B419002061
:103C7000024B1B68181E00D0D8787047F41900203A
:103C800010B5002816D11A4B1B6899700533D977E7
:103C9000184843689B788B4202D80022100010BD60
:103CA000134C2168FFF798FB012223685A70FFF735
:103CB0009BFFF2E7104BFF221B889842EED8431E71
:103CC0000E489B001C58002CE8D0631DA170D977CA
:103CD000074B1B689C42DBD02000FFF72BFC63786E
:103CE000012BDAD10348FFF791FBFFF787FFD4E7F9
:103CF000F4190020B4190020A80F010810140020A6
:103D0000F7B51F00CBB215005A425341009021482D
:103D1000CE18FFF796FD041E02D100252800FEBD37
:103D2000056301251C4B320A198882628D42F4D842
:103D30006B1E01931948AB00043BC358002B01D004
:103D40000135F3E70121F6B26170611DE570E761AD
:103D5000A7632370A670CE77A11D6360A360E360A4
:103D600023612362A382E38223836383CB77002AC8
:103D700003D10B48FFF765FD206320000099FEF793
:103D800047FE6B1E054A9B002000D450FFF736FF0C
:103D9000C4E7C046D8170020A80F0108101400205F
:103DA00000120020F7B54C4D002803D02B68DB78BB
:103DB000984240D100232C6801276370FEF7E9FE8A
:103DC000E062FFF7E7FE2B681C6A002C13D12A681B
:103DD0004249D3784248013B9B005C50116BFFF78E
:103DE0003FFD29683F480C63FFF73AFD2C60FFF761
:103DF000FBFE2000FEBD6368002B16D02000FFF7FD
:103E000005FB06000021FEF751FE3000FFF7AAFB7C
:103E1000777031003448FFF7DFFAE368326A678071
:103E2000A660E26034621C00CFE7E2686380A360B2
:103E3000E3601400C9E72D4BFF241B889842D8D8B3
:103E4000013883000193019A244BD658002ED0D01C
:103E50003000FFF759FB3000FFF784FB346A002C79
:103E600017D11E4B019A316B1D489C50FFF7F8FC8F
:103E7000310034631B48FFF7F3FC1B482968436893
:103E80009A788B789A42B4D901234B70FFF7A4FA41
:103E9000ADE76368002B18D02000FFF7B7FA0700E2
:103EA0000021FEF703FE3800FFF75CFB0123390019
:103EB0007B700D48FFF790FA0122E36862803A6A4E
:103EC000A760E2603C621C00C9E7E2686380A3600F
:103ED000E3601400C3E7C046F4190020101400206A
:103EE00000120020D8170020B4190020A80F0108E4
:103EF0002D4B70B5198800231C002C488B424ED3E3
:103F00002B4B402219882B48FFF776FC80222A4B46
:103F100012061B88294E1A43294B30001968FFF7F7
:103F20006BFC284B08221988274B00251868FFF7DF
:103F300063FCFF23254C3000E370FE3B6370631D80
:103F4000DD77A31DDD77A5622570A5706560A5608E
:103F5000E56025612562A582E58225836583FFF7FB
:103F600070FC1B4920632000FEF752FD0422194B10
:103F700020001A705D60184B1A70DD601D619D8213
:103F8000164B1C6002236370FFF71AFE144A154B90
:103F900012781D705D70DA70FFF724FD70BD9A0015
:103FA000121814600133A9E7A80F010810140020AB
:103FB000740F0108D8170020C40F01080012002058
:103FC000700F0108760F0108DC0A0020FC190020A0
:103FD000092B0008B4190020CC190020F419002086
:103FE000A50F01082C140020FF22154B120419689C
:103FF00010B50A431A601B68124A5B0211689B0ED7
:104000009B060B431360FFF787FD0F4908600028EC
:1040100015DB83080D4A9B009B181822C000104036
:10402000E73282401C6822431A600A680849530933
:104030009B005B181F210A401E399140196010BD7A
:1040400020ED00E01CED00E0F019002000E400E0AD
:1040500000E100E003220D4B30B51C682240032A2A
:104060000ED080221205C02415686405141925603D
:10407000074C0432A242F6D103241A6822431A6084
:10408000044BC0188000016030BDC04600000140F4
:10409000C00000081000000810B5041C431C04D127
:1040A00007480849262203F0F1F9201C002100F0FE
:1040B000A9FD0F20012320408340181C10BDC046DD
:1040C000591201080C12010870B5041C0E1C218045
:1040D0004B1C0FD00806000F00F03CFD051C301CE7
:1040E000FFF7DAFF2B1C1033A3602835083360601C
:1040F000E360256170BD08B50023C05E00F0B0FD2F
:1041000008BD000038B50022835E051C0C1C01337D
:1041100004D107480749492203F0B8F90023E85EB3
:10412000211E012900D0002100F06CFD38BDC046E1
:10413000541201080C120108F7B59424061C0F1C38
:1041400000254443154B04341C190193BD4223D070
:1041500001210A1C9423AA4073430198C3581342B7
:1041600017D0236B226E9C460B1C93400C4A50695F
:1041700018420ED05361206800280AD062461269A6
:104180001A4203D1074B49181B6801E0054B1B6815
:10419000984701350434D9E7F7BDC046480B0020E5
:1041A00000040140040D002008B500200221FFF7A3
:1041B000C3FF08BD08B501200221FFF7BDFF08BD00
:1041C00008B502200C21FFF7B7FF08BDF0B587B096
:1041D000051C0C1C04920593081C4B1C52D00F2389
:1041E000080918400B400193012B03D8264F0026E5
:1041F00005230AE0019B023B012B03D8234F012634
:10420000062302E002260723214F009300F0A2FCC0
:1042100007210390201C00F0F5FC6B46391C012798
:104220001B785BB2181C0293FFF714FF3A1C029B29
:1042300094219A40174B71431A606B461B78AC81EE
:104240002B70019B00209A00134B6E60D458134AC8
:10425000A7408B58A8601F43252373431B198F5019
:10426000059C990051184C60191C18330C318900B9
:104270009B00D3185118019A039C5A60084B049A6A
:104280004C601A6007B0F0BDA9410008B5410008B4
:10429000C141000800E100E06C120108480B002059
:1042A000040D0020F8B5051C466880890F22011C0A
:1042B000174B11408C00E4589023012700B20009ED
:1042C00002405B03D0183B1C8B408002191C01F09C
:1042D000F5F89423A74073430E4A9958B94399506F
:1042E00025235E4333190024990051184C60191C92
:1042F00018330C3189009B005118D3184C605C6056
:104300000C23E85E211C00F0D3FCAC60F8BDC04675
:104310006C120108480B0020022270B5124C236871
:104320001969114206D0D968114203D0053A1A61C1
:1043300003F0A4F8042223681969114213D0D96844
:10434000114210D0093A094E1A615D6A084A336871
:10435000EB1A934207D900F0B9FFFA2223689200C2
:10436000AA189A63356070BD901A0020080D0020CD
:10437000E703000030B587B0694602A802F0C4FA2E
:1043800002F0B0FA0122234B0090D969224C11436C
:10439000D961D969114001910199196911431961D4
:1043A0001969914319618023DB05236001235B4276
:1043B000E360059B002B00D04000184908F080FC0A
:1043C000002501386060201C2561A5606561A5613C
:1043D00002F008FB0F201249FFF73CFE8022114B30
:1043E00012021A60291C201C02F022FB201C04214E
:1043F00002F01EFB23680C4A596A281C1160FA213E
:1044000012688900521804219A63DA680A43DA6054
:1044100007B030BD00100240901A002040420F004B
:104420001943000800E100E0080D0020044B10B51E
:104430005C68201C01F0E0FA201C01F0C7FE10BDF2
:104440000C0D0020044B10B51C68201C01F0D4FAA0
:10445000201C01F0BBFE10BD0C0D002070B58901C1
:10446000002815DA0F23C0B20340083B124A9B080C
:1044700003249B009B18FF222040A040141C844072
:10448000DD691140A54381402A1C0A43DA6112E02C
:1044900084080A4B0326A400E418FF233040B040F0
:1044A0001E1CC0258640AD0062591940B2438140B0
:1044B000131C0B43635170BD00ED00E000E100E010
:1044C000031CF7B55C331B7800260093031C5D3397
:1044D0001B78041C01936B469E570F1C301CFFF782
:1044E000B9FD04256B465D57391C281C6C34FFF759
:1044F000B1FD2478301C63425C410134211CFFF77C
:10450000ADFF281C211CFFF7A9FF01221F21101C51
:10451000009B0B409840031C03480360019B19401B
:104520008A400260F7BDC04600E100E0031C10B500
:104530005C305D3300781C7840B200F0D5FE60B28C
:1045400000F0D2FE10BD000010B5011D5030037800
:104550000648002B05D05A1E54426241044852427C
:104560001040044A9B00995010BDC04645440008C5
:104570002D4400080C0D0020031C10B5144A0468DB
:10458000596D4460106808F09BFB14235843A369DD
:104590001B0402D501380028F9D10E4B9C4208D1EA
:1045A00080210D4B89031A690A431A6119690B4A64
:1045B0000AE00B4B9C4209D18021074BC9031A69C1
:1045C0000A431A611969074A0A401A6110BDC046B8
:1045D000DC0000200054004000100240FFFFDFFF1D
:1045E00000580040FFFFBFFFF7B5041C031D0193F7
:1045F0002C4B0D1C1868616D08F062FB14235843A6
:1046000063689A69120402D501380028F9D1264F4F
:10461000BD4213D0254EB5420CD0254B9D420BD048
:10462000BF2224482449520002F030FFBD4205D089
:10463000B54234D1214B02E0214B00E0214BA36075
:104640001B4B9D4210D123681A1E1F4B9A4203D167
:104650008020400301F028FE1C4B22689A4203D1BF
:104660008020800301F020FE23681A1E164B9A4218
:1046700004D11021164A136B0B43136300210198D8
:1046800001F0ECFD012323610023019863612362A3
:104690006362E360A36101F037F86565F7BD00234D
:1046A000A360E1E7DC000020A0860100801A06007C
:1046B00040420F00AC120108E012010850189000AF
:1046C00018087000895E80100054004000580040B7
:1046D00000100240F0B5041C85B00E1C081C4349B4
:1046E000151C02F0BBFE424F0090391C281C02F042
:1046F000B5FE231C5833011C1E805D80009802F01B
:104700008DFE3A4B206000930197431C05D10E2289
:1047100038483949FF3202F0B9FE384B22689A42D4
:1047200022D1231C002250331A708023344A9B0369
:10473000D169301C1943D161D269009913400293A9
:10474000029B02F04FFE281C019902F04BFE301C28
:10475000012100F085FA281C012100F081FA231CB8
:1047600017225C331A705A70264B22689A4222D163
:10477000231C012750331F708023214ADB03D1699A
:10478000301C1943D161D269009913400393039BF4
:1047900002F028FE281C019902F024FE301C391C6E
:1047A00000F05EFA281C391C00F05AFA231C18226B
:1047B0005C331A705A70636D002B01D1124B636524
:1047C000201CFFF7D9FE201C616DFFF70DFF221C96
:1047D00000236C32537013709370083A1370802268
:1047E00092042266A36605B0F0BDC046E40F01083E
:1047F000F810010827130108E012010800540040D6
:104800000010024000580040A0860100F0B585B0BD
:104810000392021D1D1C041C0A9B02928EB2002DE5
:1048200002D0039A002A0AD10298311C01220A23DD
:1048300000F0C2FF0025A84250D0023D4EE0802289
:10484000016E9204914203D1002B08D0226607E04A
:104850002448014204D1002BF8D180235B04236655
:10486000271C002364373B70201CFFF76DFE011CE2
:10487000201CFFF725FE226EABB200920298311C7D
:10488000039A01F067F8002826D1174B616D18686C
:1048900008F016FA1E2358436E1C46431E233A782E
:1048A0001A4206D1013E002E03D0012002F060FE24
:1048B000F4E7201CFFF73AFE002E02D03B78082BCD
:1048C0000CD0231C58330021595E231C5A3300227C
:1048D0009A5E201CFFF7FEFE02256D42281C05B0E3
:1048E000F0BDC046FFFFFFFEDC000020F0B585B044
:1048F0000392021D1D1C041C0A9B02928EB2002D05
:1049000002D0039A002A0AD10298311C01220A23FC
:1049100000F052FF0025A84250D0023D4EE0802218
:10492000016E9204914203D1002B08D0226607E069
:104930002448014204D1002BF8D180235B04236674
:10494000271C002364373B70201CFFF7FDFD011C72
:10495000201CFFF7B5FD226EABB200920298311C0D
:10496000039A00F0B9FF002826D1174B616D186833
:1049700008F0A6F91E2358436E1C46431E233A78BE
:104980001A4206D1013E002E03D0012002F0F0FDB4
:10499000F4E7201CFFF7CAFD002E02D03B78082B5D
:1049A0000CD0231C58330021595E231C5A3300229B
:1049B0009A5E201CFFF78EFE02256D42281C05B072
:1049C000F0BDC046FFFFFFFEDC000020021FD36FDA
:1049D00013B5002B1AD0031C88331B68002B15D08D
:1049E000011C70310978002902D08021890401E07E
:1049F00080214904041C1166116F126E84340092E8
:104A000089B29BB2226800F0A5FF02E00823603063
:104A1000037013BD082360300370704738B5041C61
:104A2000051DC260281C00F06FFE201CFFF78CFDE6
:104A3000011C201CFFF744FD281C00F0C9FF38BDF5
:104A4000031C70B5002568331B78041C061FAB429D
:104A500000D08568231C54330021595E231C563333
:104A6000301C00229A5EFFF735FE0021301C2A1C04
:104A70000B1CFFF7D3FF02236034237070BD0129A4
:104A800002D16930017004E0002902D101236A30AB
:104A900003707047002369300370704700236A3049
:104AA0000370704708B500F093FF08BDFE2102684F
:104AB00010B51368041C8B4313600438FFF736FDF0
:104AC00002236034237010BD08B502F0F7FC962075
:104AD00002F066FD962002F063FDF8E770B5051C54
:104AE0000C1CA0B002F0EAFC291C6846221C05F050
:104AF0006DFF051E03DC02F00FFD20B070BD0A4BF8
:104B00000A4E1B68002B04D1301C0221032200F046
:104B100045FA00246B46301C195D013400F098FB07
:104B2000AC42F7D1E7E7C046A8110020401A0020A8
:104B30000FB407B504A901C90191FFF7CFFF03B076
:104B400008BC04B0184708B502F090F900F0AEFBBD
:104B500008BD00007FB5052841D808F0A7F803106C
:104B60001C28403480239020204A9B025169C005B4
:104B700019435161526913400193019B33E0802333
:104B80001A4ADB0251691A481943516152691340AC
:104B90000293029B27E08023144A1B0351691548A6
:104BA00019435161526913400393039B1BE0802317
:104BB0000E4A5B0351691048194351615269134011
:104BC0000493049B0FE08023084ADB0351690B48E0
:104BD00019435161526913400593059B03E008484E
:104BE00002F0BCFC002007B000BDC046001002402F
:104BF0000004004800080048000C00480014004869
:104C00004113010870B5061C88B00D1C431C04D16B
:104C1000104811495D2202F039FC0F243009204070
:104C2000FFF798FF01232640B34003932B1C0B4A48
:104C300023409B009B5803A9019304936B065B0FD1
:104C400005930323ED112C400693079400F07EFB9F
:104C500008B070BD5912010862130108B8130108A9
:104C600070B5061C0D1C431C04D10F480F497F2250
:104C700002F00CFC0F20341C360904403040FFF7D2
:104C800069FF02230021AB4249412B1C49420B40E2
:104C900003216400A140A340C2688A43191CC2607A
:104CA000C2681143C16070BD591201086213010846
:104CB00070B50F24051C000920400E1CFFF74AFFA9
:104CC000291CC36821404900CB40191C032319400B
:104CD00034400901281C2143FFF794FF70BD0000F8
:104CE000084B10B51B68002B0AD1074C0221201C71
:104CF000032200F053F99621201C890100F078FA74
:104D000010BDC046A8110020401A002008B5031CA1
:104D10000020022B0DDD0749033B9B005A585850D9
:104D2000824204D01368101C5B68984701E00120A0
:104D3000404208BD240D002070B50C1C151C022833
:104D400010DC0F4B1B68002B01D1FFF7C9FF661960
:104D5000B44205D021780B4800F07AFA0134F7E725
:104D6000281C0BE00338084B8000C058002803D0F3
:104D700003681B68984701E00120404270BDC046AF
:104D8000A8110020401A0020240D002010B50C1C92
:104D900002280BDC0C4B1B68002B01D1FFF7A0FF96
:104DA0000A4800F037FA207001200BE00338084B66
:104DB0008000C058002803D003689B68984701E032
:104DC0000120404210BDC046A8110020401A00201A
:104DD000240D002008B5031C0120022B0BDD033B32
:104DE000054A9B009858002803D00368DB68984761
:104DF00001E00120404208BD240D002008B5031C3D
:104E00000020022B0BDD033B05489B0018580028AF
:104E100003D003681B69984701E00120404208BDA8
:104E2000240D002008B5022804D880239B014B6084
:104E3000002005E002F0BCFB092303600120404292
:104E400008BD08B5FFF77FFEFDF780FE08BD70477F
:104E500008B5FFF7FCFFFDF7ADFC08BD0C4910B528
:104E60000B681818EFF30882904205D30C2201203A
:104E7000084B40421A600AE0074A1268002A04D030
:104E8000064C2468A2189042F0D20860181C10BD8D
:104E9000D8000020F41A0020200D0020240E00204D
:104EA00038B5074C051C2368986802F059FC236844
:104EB000D86802F055FC002D01D0FFF705FEFEE793
:104EC000E000002008B5FFF7EBFF0120704708B5B0
:104ED000FDF74AFE08BD08B5FDF750FE08BD00000D
:104EE00010B502F013FD041E02D1024802F036FB99
:104EF000201C10BD9B14010808B5002801D002F049
:104F00000FFD08BD031C04CB10B5041C002A00D102
:104F1000036022689A4204D003480449592202F0EF
:104F2000B5FA206810BDC046D7140108EB1401087B
:104F30007022031C406810B542431C68154988184C
:104F400054509A6819694260DA68C1608260021C34
:104F5000596910320161196A041C916000215034B2
:104F600061802180618121811A24195F013101D181
:104F7000082306E018215B5E013301D1042300E021
:104F80000C23536001F03CFF002802D0024802F0DD
:104F9000E5FA10BD280E00203C150108F0B5804F41
:104FA0008BB0041C0D1C081C391C161C02F056FA90
:104FB0007C490190301C02F051FA011C019802F06A
:104FC0002DFA01972060431C04D1774877496C2261
:104FD00002F05CFA2368764A934214D18021754A24
:104FE000C901D0680843D060D068844667467248DB
:104FF0003840D060906908439061926911400291F5
:10500000029A002216E06D4A934215D18021694A26
:105010008902106908431061106984466746684830
:1050200038401061D0690843D061D26911400391C2
:10503000039A0122626047E0624A934215D18021BF
:105040005C4AC902106908431061106984466746CA
:105050005D4838401061D0690843D061D269114081
:105060000491049A0222626042E0584A934215D1A8
:105070008021504A09031069084310611069844671
:105080006746534838401061D0690843D061D269FF
:1050900011400591059A032262603DE04D4A93421A
:1050A00012D18022434B52031969114319611869C7
:1050B000494901401961D9691143D961DB691A4035
:1050C0000692069B04233AE0444A934210D12022E0
:1050D000384BD9681143D960D9689143D96099692F
:1050E000114399619B691A400792079B052326E0AB
:1050F0003B4A934210D140222E4BD9681143D960CC
:10510000D9689143D9609969114399619B691A40A3
:105110000892089B062312E0324A934210D1802263
:10512000244BD9681143D960D9689143D9609969F2
:10513000114399619B691A400992099B0723636097
:10514000281C019902F04EF9301C164902F04AF968
:105150006B1C03D0281C0121FFF782FD731C03D0B8
:10516000301C0121FFF77CFD96239B01A3600023E7
:105170002583E3602361636123626683201CFFF75C
:10518000D7FE23680D4A934207D10122164B1748D8
:105190001A60211C4B3202F00DFC0BB0F0BDC04672
:1051A0004C11010838100108541501087015010848
:1051B0000038014000100240FFBFFFFF00440040E4
:1051C000FFFFFDFF00480040FFFFFBFF004C0040D9
:1051D000FFFFF7FF00500040FFFFEFFF001401400A
:1051E00000180140001C0140A8110020401A0020B6
:1051F00008B58160FFF79CFE08BD0000702342687F
:105200005343034A9B58D8698006C00F7047C04675
:10521000280E002038B5041C4568201CFFF7EEFF5F
:105220000028FAD070236B43024A9B58988CC0B276
:1052300038BDC046280E0020702342685343034AFD
:105240009B58D8690006C00F7047C046280E002042
:1052500070B5051C0C1C4668281CFFF7EDFF0028E4
:10526000FAD070237343024AE4B29B581C8570BD88
:10527000280E002008488546002103E0074B5B58B4
:10528000435004310648074B42189A42F6D301F0C6
:105290009DFEFAF743FFFEE7008000204C1F010847
:1052A000C00000209C0A0020FEE770471021064A3B
:1052B00008B5136803200B431360FFF75BF8FFF793
:1052C000F4FF002008BDC04600200240024A1368D7
:1052D000013313607047C0468C1A0020014B1868D8
:1052E0007047C0468C1A00201F2318401E3B834085
:1052F000181C034BD867BFF34F8FBFF36F8F7047F6
:1053000004E100E038B5841CE37F022B03D00423C2
:105310008363033B17E00E210368056C1A688A4318
:105320001A600122196891431960131CAB40C16BCC
:105330004B60E27700248318426BDC77131EA34294
:1053400001D09047231C181C38BD0000F0B50B6835
:1053500087B0029300230191029ADA4000D19DE0C8
:1053600001229A4003920399029A0A40009200D1C6
:1053700092E0019A54681022271C9743022F0ED105
:1053800007250F211D40AD00A940DA0892008218C0
:10539000166A8E4301990969A9400E431662026894
:1053A0005E0094460322151CB5406146ED43224041
:1053B000B24029400A43013F0260012F0ED8019AF2
:1053C0008768D2682F40B2403A4382604768039AA8
:1053D0009743E206D20F9A403A434260C2681540B2
:1053E000019A9268B2401543C560E20054D503218A
:1053F0000F1C1F408C46B9000F2701268F40284AFA
:1054000095693543956192699D0832400592059AE8
:10541000244AAD00AD18AA68BA4390270392FF054D
:105420000022B84211D0321C1F4EB0420DD01F4E88
:105430009218B04209D01E4E6246B04205D01D4AB5
:105440008218574257410526F21B8A4003990A43A6
:105450000099AA600E1C184ACD4317683E43E10329
:1054600001D43E1C2E4016605768009E3E43A103A7
:1054700001D43E1C2E4056609768009E3E43E102D8
:1054800001D43E1C2E409660D668009F3743A1028F
:1054900001D42E40371CD76001335DE707B0F0BD63
:1054A00000100240000001400004004800080048CD
:1054B000000C004800F0FFB7000401400023F0B5E5
:1054C00085B00291029ADA4061D001229A40944656
:1054D0006146029A0A40019257D00326341C5A00B2
:1054E0009440E2430F250168DC081140A4000160EC
:1054F0000419216A2F1C03910721194089008F404C
:10550000391C039F8F432762644681681140816084
:105510004168A1431C1C3440A400A5404160C168FF
:105520000A40C26099081B4A890089188F680022C6
:105530002F40BC469027FF05B84211D0164F0132CC
:10554000B8420DD0154F0132B84209D0321C144E6A
:10555000B04205D0134A8218564272410526B21A4B
:10556000A240944511D18A68AA438A6001990E4AE3
:10557000C94314680C40146054680C40546094682B
:105580000C409460D4682140D16001339AE705B0A3
:10559000F0BDC0460000014000040048000800487B
:1055A000000C004800F0FFB70004014003689A694E
:1055B000920701D500229A6201219A690A4202D11A
:1055C0009A690A439A61704730B50468064D60686D
:1055D00089052840039D890D284303430B4312048A
:1055E0001343636030BDC046009800FC10B5436BA8
:1055F000174C0422A34202D0164CA3420FD1002321
:10560000114200D0B83311220A40112A01D17F3251
:10561000134312221140914213D14E3210E0002365
:10562000114200D0B833CA0701D5F22213438A07CA
:1056300001D5F422134312221140914201D10E32BE
:10564000134301680A68002013430B6010BDC04675
:1056500005610008A95E000810B50023CA0708D537
:10566000031C41331A7828231A401A33282A00D001
:10567000B0338A070AD5021C41321478282222400E
:10568000282A01D11C3200E0F42213434A0701D535
:10569000B822134311220A40112A01D17F32134349
:1056A00012221140914201D14E32134301680A681F
:1056B00000209A430A6010BDF8B5041C0E1C171C8C
:1056C0001D1C2268936933409B1B59424B41BB42CE
:1056D00016D16B1CF6D0002D0BD1231C2022413398
:1056E0001A70221C002342324034137003202370AE
:1056F00007E0FFF7F3FD069BC01AA842E1D9ECE7EB
:105700000020F8BD7047000070B5041C0120002C7B
:105710004AD0251C41352B78DBB2002B05D1221C49
:1057200040321370201CFFF7EDFF242301212B7062
:1057300023681A688A431A6061681C4A0A401A6121
:1057400098681B4A10409860E068111CA268012804
:1057500004D18020000202439A6008E084263602C9
:1057600032439A60022802D1802212015A605A689C
:10577000104802435A60DA6800200A40DA60616922
:1057800022691143A26912020A43DA60E169226ABE
:105790000A4301211A601A680A431A6020236064D0
:1057A0002B7020634234207070BDC046FFFFFFF0B5
:1057B000FF7FFFFF00800002F0B5071C1D1C0023C7
:1057C00087B00292059341373B78041C0220202BBE
:1057D00000D07DE023689E6980231B021E4077D1A4
:1057E000231C40331A78012A72D001221A70242314
:1057F00003913B706664039BE1689B0522689B0DE7
:10580000012901D1334901E0A02189010B435360F3
:10581000FFF764FD061C23689A69920604D51027D9
:105820009A693A4026D114E09A69D206F7D4271C27
:1058300041373A78A02AF2D06A1CEDD0002D02D16F
:1058400020233B7040E0FFF749FD801BA842E2D9CE
:10585000F6E70096201C20212B1CFFF72DFF0028C7
:1058600035D120232268D361221C40344132137089
:1058700020702DE000220096201C20212B1CFFF719
:105880001BFF021E23D12368DF612027DF610599FA
:10589000481C0590029881420ED180205968C001B1
:1058A00001435960201C0096391C2B1CFFF704FF94
:1058B00000280CD12368DF61059B029A93429AD39A
:1058C000231C202241331A7000234034237003200C
:1058D00007B0F0BD00200002F7B5051C41352E7859
:1058E000041C0220202E30D1261C40363778012F90
:1058F0002BD00138307020302870201C1025423009
:105900000570002062626064089A63850F4B134043
:10591000E3620F4B6363638DFF2B04D9FF23238561
:1059200080235B0402E0638D2385E36A80200025E9
:10593000228D8001D2B20090201CFFF745FE357009
:10594000201C0121FFF752FE281CFEBDFFFFFFFEB9
:10595000CD5F0008F7B5051C41352E78041C0220E8
:10596000202E30D1261C40363778012F2BD001381D
:10597000307021302870201C102542300570002026
:1059800062626064089A63850F4B1340E3620F4BB9
:105990006363638DFF2B04D9FF23238580235B047E
:1059A00002E0638D2385E36A90200025228D80012B
:1059B000D2B20090201CFFF707FE3570201C022198
:1059C000FFF714FE281CFEBDFFFFFFFECD5F0008A1
:1059D000021C08B5413211780223202907D1263351
:1059E0001370044B1C394363FFF700FE0023181C9F
:1059F00008BDC046E55C000808B5036899691A68E7
:105A0000436B002B00D0984708BD031C70B50025E0
:105A10002022061C42331D70013B1978041C4036BD
:105A20001A7021290AD11123456303632039FFF736
:105A300013FE3570201CFEF7C9FF09E012234563F1
:105A400003630221FFF708FE3570201CFEF7E2FF1A
:105A500070BD38B5031C002542331D70013B1A7818
:105A6000041C292A0DD1013A1A7021230121036354
:105A7000FFF7F2FD231C40331D70201CFFF70AF8CE
:105A80000FE01A782A2A0CD1023A1A702223022136
:105A90000363FFF7E1FD231C40331D70201CFEF75C
:105AA000FDFF38BD174B10B5C3620023021C036312
:105AB000041C202041321070537004226363114291
:105AC00011D0636A591C61622168496A1970238D7B
:105AD000002B08D0013B2385638D013B9BB263857E
